:100000000C9488030C94C0030C94C0030C94C0039C
:100010000C94C0030C94C0030C94C0030C94C00354
:100020000C94C0030C94C0030C94CC2A0C94882A22
:100030000C94C92B0C94C0030C94C0030C94C00303
:100040000C94C0030C94C0030C94C0030C94C00324
:100050000C94C0030C94A52B0C94C0030C94C00307
:100060000C94C0030C94C0030C94C0030C94C00304
:100070000C94C0030C94C0030C94C0030C94C003F4
:100080000C94C0030C94C0030C94C0030C94C003E4
:100090000C94C0030C94C0030C94C0030C94C003D4
:1000A0000C94C0030C94C0030C94C0030501090216
:1000B000A10185020901A1000509190129081500FE
:1000C0002501950875018102050109300931158165
:1000D000257F95027508810609381581257F9501D0
:1000E00075088106050C0A38021581257F95017572
:1000F000088106C0C005010980A101850319012AF4
:10010000B700150126B700950175108100C0050CD8
:100110000901A101850419012AA002150126A002E6
:10012000950175108100C005010906A1018506052C
:100130000719E029E71500250195087501810205D9
:1001400007190029EF1500250195F07501810205B9
:10015000081901290595057501910295017503910D
:1001600001C00660FF0961A1010962150026FF00B8
:100170009520750881020963150026FF00952075FA
:10018000089102C005010906A101050719E029E748
:1001900015002501950875018102950175088101F9
:1001A0000507190029FF150026FF0095067508812F
:1001B000000508190129051500250195057501910E
:1001C00002950175039101C0FD377A585A00000469
:1001D000E6D6B4460200210116000000742FE5A304
:1001E000E0042901715D003D8889C65436C3174F6C
:1001F000E4E7E954216F66A3530C3B6630E2DB531E
:10020000FF54A44761B14E00B3631F83F5EAB141C7
:1002100068B8459F74F8C0148CF95CC34403CB5A8A
:100220003B5D661C387F07A62D587B499558A80F63
:1002300043671F1809F61385A37B70CFD6D35126C9
:1002400058B27BD5EDD1CAEF907A89B5DF657720BA
:10025000D525F1D38C5C36C2D457F50ACB7993748B
:10026000AC509585F512CBE269EE75F72DA5774474
:100270007935D9714222AC779DE804D1BD68632DF0
:100280006637DBE90CBA9558F1D388E6670B98938B
:10029000A7780F83566F9D788535516738B2105611
:1002A0008B55983298841D5B983D5080D874309B54
:1002B0002490A125C8DB21ECE5CBF3201CC7CAD2D2
:1002C00056EF4198BA3741F509BA9A5045F1277D62
:1002D00022E0EA83BC3DD22E37D898DB528E270429
:1002E0004A07D2BC8F8DD5A675CCF1A4FCF06DDC8D
:1002F000ECDD4DBBACB47149F2CDD5058C871FBB8D
:100300009F48974BBB0A631EEC6EF86FCE6457C3D1
:10031000DE9FBE47A5EBD2E7E0B4E2E476939AFE17
:1003200080140B69978DDE7070B7A57790A434C7E1
:10033000115CE70290BBAC6D9763CED9A019DC7C51
:1003400093424E16B041B79D01EE64C49AA3CB1EF2
:10035000C0157E0F3547C5F7000000002F178E30FF
:10036000E78A7D8700018D03AA080000D2011E0ADA
:10037000B1C467FB020000000004595A01000100EB
:1003800069031C0F010F00000200020065031C0F2F
:10039000010F0000030001006A031C0F010F0000A1
:1003A000040002004F031C0F010F0B0705000100A2
:1003B0006B031C0F010F00000600020051031C0F0D
:1003C000010F00000700020067031C0F010F00006F
:1003D000080001006C031C0F010F0000090002005F
:1003E00053031C0F010FE6060A00020055031C0F01
:1003F000010FE6060B00020057031C0F010FE60673
:100400000C00020059031C0F010FE6060D0002004C
:100410005B031C0F010FE6060E0002005D031C0FBC
:10042000010FE6060F0002005F031C0F010FE60636
:100430001000020061031C0F010FE606110002000C
:1004400063031C0F010FE606120002006D031C0F70
:10045000010F0000130002006F031C0F010F0000CA
:100460001400010071031C0F010F000015000000B3
:1004700000006C0619150000290014001A0008007D
:10048000150017001C0018000C00120013002A00B1
:100490002B0004001600070009000A000B000D00E5
:1004A0000E000F0034002800E1001D001B000600B4
:1004B0001900050011001000360037003800E50073
:1004C0000000E000E300E2002A00000000002C0031
:1004D000E600E700E4000000010001000100010067
:1004E0000100010001000100010001000100010004
:1004F00001000100010001000100010001000100F4
:1005000001000100010001000100010001000100E3
:1005100001000100010001000100010001000100D3
:1005200000000100010001000100000000000100C6
:1005300001000100010000000100010001000100B4
:1005400001000100010001000100010001000100A3
:100550000100010001000100010001000100010093
:100560000100010001000100010001000100010083
:100570000100010001000100010001000100010073
:100580000000010001000100010000000000010066
:10059000010001000100000009025B00030100A04E
:1005A000FA09040000010301010009211101000101
:1005B0002244000705810308000109040100020329
:1005C0000000000921110100012222000705820319
:1005D00020000107050303200001090402000103B4
:1005E00000000009211101000122B6000705840363
:1005F0002000011201000200000008EDFED2FA0105
:1006000000010203011C037600690061006C003ADE
:10061000006600360034006300320062003300637D
:100620000000001E035600610075006C007400207D
:100630000034003500200041006C0070006800614B
:1006400000000016034200610063006F006E00733B
:100650000070006F006F006E0000000403090400CA
:10066000000000000000000000000000000000008A
:10067000000000000000000000000000000000007A
:100680000000007E0F00D4FFFFFFC70000007800CD
:10069000000000000000002A2B28000000000000DD
:1006A0000000000000000000000029000000002CF5
:1006B0001E3420212224342627252E362D37382794
:1006C0001E1F202122232425263333362E37381FA0
:1006D0000405060708090A0B0C0D0E0F1011121362
:1006E0001415161718191A1B1C1D2F3130232D3500
:1006F0000405060708090A0B0C0D0E0F1011121342
:100700001415161718191A1B1C1D2F3130354C00E3
:1007100011241FBECFEFDAE0DEBFCDBF04B603FE6B
:1007200018C08091C6049091C704A091C804B091EC
:10073000C9048730904BA740B04B59F41092C604BF
:100740001092C7041092C8041092C904E0E0F8E3C4
:10075000099511E0A0E0B1E0E0EFFAE602C00590F3
:100760000D92A638B107D9F724E0A6E8B1E001C0A0
:100770001D92A63CB207E1F70E94F02B0C9429359C
:100780000C940000482F2091C1049091780459E006
:10079000291302C080E0089530E0529FF001539F7A
:1007A000F00D1124E758FB4F8181681306C080814A
:1007B000481303C085818111EECF2F5F3F4F277013
:1007C000E7CFE8EDF0E080818E7F80831092E20039
:1007D0001092DA001092E100A0EEB0E08C918160FE
:1007E0008C9380818F77808319BCA7EDB0E08C91CA
:1007F0008E7F8C9380818F7E808310924904089530
:100800002091E4003091E50095E6A9012091EC00EB
:10081000822F817020FF06C08091E80080FF06C013
:1008200080E008952091E80022FD1AC080916E04B6
:10083000882389F0853089F08091EB0085FD0FC019
:100840002091E4003091E50042175307F9F29150EE
:10085000E1F684E0089582E0089583E0089581E060
:1008600008958091700487FF13C08091E80082FF93
:1008700006C08091E8008B778093E80004C08091E7
:100880006E048111F2CF089580916E048823D9F30C
:100890008091E80080FFF8CF8091E8008E77ECCF60
:1008A000982F9093E900242F762F50E0891731F08C
:1008B0007091EC002091ED005091F00021FD07C0F7
:1008C0009F5F973071F78093E90081E00895309140
:1008D000EB003E7F3093EB003091ED003D7F309395
:1008E000ED003091EB0031603093EB007093EC0041
:1008F0002093ED005093F0002091EE0027FDE0CF13
:1009000080E00895B0E0A0E0E8E8F4E00C944A3418
:10091000C8EDD0E088818F7E8883E7EDF0E08081AC
:100920008160808384E082BF81E080934904888174
:100930008E7F888302EE10E0F80110821092DA00B8
:1009400081EEC82ED12CF601108288818F778883A2
:1009500088818068888388818F7D888319BC109204
:100960006E0410926F0410926D0410926C0490EE5D
:10097000E92EF12CF70180818B7F80838881816053
:10098000888342E060E080E00E945004F6018081AC
:100990008E7F8083F8018081816080838081886080
:1009A0008083F70180818E7F808388818061888346
:1009B000CDB7DEB7E8E00C946634FC018091760494
:1009C0009091770486179707A0F06115710529F4B7
:1009D0009091E8009E779093E80090E06115710592
:1009E00051F4911108C08091E80082FF34C080E08A
:1009F0000895BC01F2CF80916E048823C1F1853047
:100A0000C1F18091E80083FD30C08091E80082FD53
:100A1000EACF8091E80080FFE1CF8091F300209140
:100A2000F200382F6115710519F02830310558F0A2
:100A300091E02830310509F090E02091E8002E7710
:100A40002093E800CBCF81918093F1006150710930
:100A50002F5F3F4FE7CF80916E04882341F08530B0
:100A600041F08091E80083FFBECF81E0089582E0ED
:100A7000089583E0089580914B0408959C014FB739
:100A8000F8948091430490914404A0914504B0915E
:100A900046044FBF821B930B08952FB7F8946091C3
:100AA00043047091440480914504909146042FBF03
:100AB00008952FB7F8948091430490914404A09135
:100AC0004504B09146042FBF0895A3E0B0E0EBE6E3
:100AD000F5E00C94503420914004309141042817E3
:100AE0003907A1F09093410480934004E0913E04C3
:100AF000F0913F04309751F024E029839B838A834F
:100B00000680F781E02DCE01019609952396E2E05B
:100B10000C946C34A3E0B0E0E0E9F5E00C945034C0
:100B200020913C0430913D0428173907A1F090939F
:100B30003D0480933C04E0913E04F0913F043097E3
:100B400051F023E029839B838A830680F781E02D7F
:100B5000CE01019609952396E2E00C946C34E09165
:100B60003E04F0913F04309729F00190F081E02D90
:100B70000995089580E00895CF93DF93EC014091AB
:100B800031045091320460913304709134042FB7D2
:100B9000F8948091430490914404A0914504B0914D
:100BA00046042FBF841B950BA60BB70B843F9140C7
:100BB000A105B10518F58091310490913204A091FE
:100BC0003304B091340480932D0490932E04A093A9
:100BD0002F04B093300484EF91E0A0E0B0E0809364
:100BE000290490932A04A0932B04B0932C04D0934F
:100BF0003904C0933804DF91CF9108950E944D05C8
:100C000060932D0470932E0480932F0490933004EE
:100C100082E390E0A0E0B0E0E2CFFC018481862393
:100C200051F492819923B9F06923808583FF05C02F
:100C300081E061110FC080E00895892F8F70929537
:100C40009F70982B862F8F7062956F70682B81E054
:100C50009613F1CF089581E0FDCFDC01609123046C
:100C600080912404962F891301C00895292F30E024
:100C7000F901EE0FFF1FE55EFB4F408151814A17DE
:100C80005B07A1F487E08A9FA0018B9F500D112480
:100C900046585C4F81E0FA0184839613E6CF2F5FBC
:100CA0003F4F237033272093230408952F5F3F4F36
:100CB000922F9370D8CF1092780310927703EAE7BF
:100CC000F3E08581811102C014821682379683E099
:100CD000E23BF807B1F70895B0E0A0E0E2E7F6E004
:100CE0000C9448348FEF9FEF4430510508F469C0ED
:100CF0004091470441FB882780F990E0880F991FB5
:100D000042FB002700F910E0000F111F000F111F18
:100D1000802B912B40FBCC24C0F8D12C8C299D2911
:100D200043FB222720F9C22FE0E0DE2F53E0CC0F57
:100D3000DD1F5A95E1F78C2B9D2B44FBAA27A0F9C8
:100D4000B0E0E4E0AA0FBB1FEA95E1F78A2B9B2BEA
:100D500045FBEE27E0F9F0E0A5E0EE0FFF1FAA95B6
:100D6000E1F78E2B9F2B46FB222720F930E0B6E0DF
:100D7000220F331FBA95E1F7822B932B47FB2227D3
:100D800020F930E03695322F222737952795822B90
:100D9000932B20914804322F3170F32EE82EF92A3C
:100DA00026952170B22EBB0CA82EBF28C501BB0C06
:100DB000AA0BBB0BFB0180839183A283B38390E0DA
:100DC00080E0CDB7DEB7EAE00C946434EFE4F3E002
:100DD000848195812AE030E0B9010E940B34609350
:100DE0001001868180930F01828580930E01848596
:100DF00080930D0186859785B9010E940B3460931D
:100E00000C01808980930B01828980930A01848977
:100E100080930901089580914F039091500390931E
:100E200012018093110108950E9459059C0190912F
:100E30004D0280914E02982B21F030934A0220936C
:100E4000490290914F0280915002982B21F03093EB
:100E5000480220934702E0913E04F0913F0430970E
:100E600049F082E080934B020480F581E02D8BE411
:100E700092E0099508958091460280FF0CC0609130
:100E80000A0170E07595679575956795611571050F
:100E900049F1862F089581FF06C060910A0170E034
:100EA00075956795F3CF60910A0182FD0BC0909113
:100EB00045029923A1F06091090180910A019617DA
:100EC00038F0682F70E06038710500F38FE70895FF
:100ED000899FC001112470E00E941F34F4CF61E0AB
:100EE00070E0D7CF81E0089580914602609157036A
:100EF0007091580380FF16C020910E01269FC001FB
:100F0000279F900D1124BC0176956795769567957E
:100F10006038710508F043C06115710509F441C0DE
:100F2000862F089581FF0BC020910E01269FC001DE
:100F3000279F900D1124BC0176956795E9CF82FF1C
:100F400009C080910E019B01829FB001839F700DAB
:100F50001124DECF209144022223D1F290910D0181
:100F600080910E01482F50E0291748F0CB01849F53
:100F7000B001859F700D949F700D1124C9CF289FDB
:100F800090011124269FA001279F500D369F500DE0
:100F90001124692F70E0CA010E940B34B9CF8FE78A
:100FA000089581E00895282F35EB2303C001112413
:100FB00097FF04C080589109892F089580589F4F4A
:100FC000FBCF80E00895F894E82FE295EF70F0E011
:100FD00031A1282F2F7081E090E001C0880F2A9561
:100FE000EAF7982F9095932391A392A1892B82A33E
:100FF000789408959091470492FF10C041E0282F03
:101000002471243009F040E031E0282F2871283085
:1010100009F030E0431711F02CE0822793FF10C055
:1010200041E0282F2471243109F040E031E0282FDD
:101030002871283109F030E0431711F02CE08227A5
:101040003091480430FF10C051E0282F2171213029
:1010500009F050E041E0282F2871283009F040E0E5
:10106000541711F029E0822731FF10C041E0282FEA
:101070002171213109F040E031E0282F2871283119
:1010800009F030E0431711F029E0822794FD877EB4
:10109000089582389105B9F1B0F48133910509F4CE
:1010A0007DC048F48932910509F46DC08A329105FA
:1010B00009F47BC008958533910509F45FC0893335
:1010C000910509F10895833E9105D9F138F4803EE8
:1010D000910529F1823E910579F10895863E9105A9
:1010E000D9F1873E910509F43EC0843E910541F552
:1010F0002091480421FF24C08091470484FD19C039
:1011000087EE90E0089520914704237009F05AC0BB
:101110002091480423FF14C089E290E008952091B3
:10112000470420FD38C03091480430FF09C024FF37
:1011300043C090E080E008952091470422FDF7CF5E
:1011400008952091470422FD3AC03091480430FDB3
:1011500039C024FFF5CFEDCF2091470423FFF0CF16
:1011600024FDE7CFCDCF2091470423FD2EC0309141
:10117000480431FFEECF84EE90E0089520914704BB
:1011800025FFDECFC9CF2091470425FD21C0209146
:10119000480423FFD5CF89E390E0D2CF20914704C4
:1011A00026FFCECF8AE290E008952091470426FFE3
:1011B000C7CF81E390E0089583EE90E0089582EE3A
:1011C00090E0089580EE90E0089586EE90E0089516
:1011D00085E390E008951F93CF93DF930E94490821
:1011E000EC01C11580E5D807F0F5C11580E4D807FA
:1011F00008F09CC0C03ED10520F5CD3CD10508F0DB
:1012000082C0C83AD10578F4C53AD10508F073C058
:10121000C130D10519F1209709F1C430D105F0F49E
:10122000D0E0C0E01BC0C33CD105D0F7C85AD0E025
:10123000CC0FDD1FCF5DDE4F0990D881C02DD46467
:101240000DC0C11580E2D80708F0D1C0C11581E0FA
:10125000D80708F05AC0C83ED10510F7CE01DF917B
:10126000CF911F910895C03682E5D80718F5C03494
:1012700082E5D80708F06BC0C03282E5D80708F0D5
:101280005FC0C11582E5D80708F497C02C2F2695BA
:10129000269580E2289F900111248C2F8370C1E055
:1012A000D0E002C0CC0FDD1F8A95E2F7C22BD32B12
:1012B000DD68D4CFC03A82E5D80760F4C03882E553
:1012C000D80708F459C0CF71D0E0DC2FCC27C46F09
:1012D000D06AC4CFC03C82E5D80708F462C0C03EE3
:1012E00082E5D80708F09CCFDC2FCC27CC27DF7114
:1012F000C06FD06AB3CFC55AD0E0C25EDE4FC8819E
:10130000D0E0D064ABCFD065A9CF8D2F0E94FA0773
:10131000182FCE0199270E944908C12FD0E0DC2F59
:10132000CC27CC27DF71C82BD92B98CFCE0199279A
:101330000E944908CC27DF70C82BD92BD06A8ECFEA
:10134000CF71D0E0DC2FCC27C16FD06A87CF2C2F94
:1013500026952695277080E2289F900111248C2FD6
:101360008370C1E0D0E002C0CC0FDD1F8A95E2F7A8
:10137000C22BD32BDC6872CF2C2F26952695277095
:1013800080E2289F900111248C2F8370C1E0D0E06F
:1013900002C0CC0FDD1F8A95E2F7C22BD32BDA688F
:1013A0005DCF8C2F8F710E94FA07C82FD0E0DC2F01
:1013B000CC27CC27DF71D06251CF8C2F8F710E9448
:1013C000FA0755E0D695C7955A95E1F7CF70D0E06A
:1013D000DC2FCC27282F30E084FF05C044E0220F0B
:1013E000331F4A95E1F7C22BD32BD06937CF8D2F0E
:1013F0008F710E94FA07182FCE0199270E94490881
:10140000C12FD0E0DC2FCC27CC27DF71C82BD92B04
:10141000D2CF80910F02882331F010920F021092E8
:101420000E0210920D020895CF93C82F80914804A8
:1014300082FF0CC080910F028C1741F00E94590569
:1014400090930E0280930D02C0930F02CF910895E6
:1014500090910F02292F282361F080958923809392
:101460000F02882339F00E94590590930E02809351
:101470000D02089590E080E0F8CF809590912E03C2
:10148000982390932E0308951092EC011092EB0193
:101490001092EA0108958091510390915203892B93
:1014A00089F00E94590520910D0230910E02AC0185
:1014B000421B530B81E0209151033091520342179C
:1014C000530708F480E0817008959091E901292F75
:1014D000282321F0809589238093E9010895909134
:1014E00015019923D1F09091470497FF16C0E82F7A
:1014F000E695E695E695EE31E0F4F0E0E857FE4F2C
:10150000282F277081E090E001C0880F2A95EAF724
:1015100080959281892382830895EAE8F1E0919190
:10152000891303C0DF0111971C9291E0E039F9079C
:10153000B1F70895909115019923C1F09091470456
:1015400097FF14C0E82FE695E695E695EE31F8F49E
:10155000F0E0E857FE4F877021E030E001C0220F35
:101560008A95EAF78281822B82830895AAE8B1E006
:10157000EFEF90E02D91821751F0EF3F19F4211118
:1015800001C0E92F9F5F9630A9F7EF3F09F4089556
:101590000E2E000CFF0BE857FE4FE6CF8091C104E2
:1015A00090917804981301C008958F5F8770FACFE7
:1015B000292F943078F58C3068F590E03CE0239F3B
:1015C000800D911D1124682F677023E096958795F3
:1015D0002A95E1F7FC01EE0FFF1FE80FF91FE25318
:1015E000FE4F50E040E080E0219130E0062E02C046
:1015F000369527950A94E2F721703327042E01C00F
:10160000220F0A94EAF7822B4F5F5F4F4330510558
:1016100059F7089580E00895292F943098F58C307B
:1016200088F590E03CE0239F800D911D1124282F28
:10163000277041E001C0440F2A95EAF723E0969510
:1016400087952A95E1F7FC01EE0FFF1FE80FF91FC0
:10165000E253FE4F30E020E070E05191DF0111973E
:10166000CB01022E02C0969587950A94E2F781700D
:1016700081958527842385278C932F5F3F4F2330C7
:10168000310559F7089580931E02089590911E0226
:1016900021E030E0F90101C0EE0F8A95EAF7D901A7
:1016A00002C0AA0FBB1F6A95E2F7EA2B01C0220F06
:1016B0004A95EAF7892F8E23E81305C0292B822F3C
:1016C0000E94430B089520952923F9CF21E030E0B3
:1016D00001C0220F8A95EAF7209580911E0282238D
:1016E0000E94430B08959091EC018095892380938B
:1016F000EC01282F277069F4891759F0909148045C
:1017000092FF07C08695869586950E94660B0E947B
:10171000440A089521E030E001C0220F8A95EAF7DB
:1017200080911E02822B0E94430B089590914804E1
:1017300092FF10C098E0899F90011124622B609362
:10174000EC010E948A0B0E9459059093EB01809353
:10175000EA0108950E948A0B089580931D0208955E
:1017600092959F70963091F058F4925F9F709230EE
:1017700058F4803F19F030F4883E30F481E0089549
:101780009A5FF4CF843FD1F380E00895883EB0F3B0
:10179000813FD1F7F3CF662309F45DC08D3C41F45E
:1017A0000E947407819580934E020E941407089549
:1017B0008E3C19F40E947407F6CF8F3C31F40E94DE
:1017C0007407819580934D02F0CF803D19F40E94FB
:1017D0007407F8CF893D29F40E943B0780934F029C
:1017E000E4CF8A3D21F40E943B078195F7CF8B3DE2
:1017F00031F40E943B07819580935002D6CF8C3DF7
:1018000019F40E943B07F8CF9FE2980F983070F4CC
:10181000815D990B21E030E001C0220F8A95EAF743
:1018200080914C02822B80934C02BFCF8D3D31F4CE
:1018300080914602816080934602B7CF8E3D21F4AD
:10184000809146028260F7CF8F3D09F0AECF809144
:1018500046028460F0CF40914D028D3C59F4809156
:101860004E0287FF0DC010924E0241110BC0109224
:10187000440208C08E3C81F480914E0218169CF3FD
:10188000442381F080914F0290915002892B09F0FE
:101890008CCF1092450289CF8F3C49F447FFF0CF9F
:1018A00010924D0280914E028111ECCFE0CF803D2D
:1018B00019F41416ACF3E4CF90914F02893D29F44A
:1018C0001916F4F610924F02DBCF8A3D19F497FFF8
:1018D000D7CFF8CF909150028B3D29F497FFD0CF0E
:1018E00010925002CDCF8C3D19F41916CCF3C8CF0D
:1018F0009FE2980F983090F4815D990B21E030E0E1
:10190000B90102C0660F771F8A95E2F7CB01809577
:1019100090914C02892380934C02B2CF8D3D31F4DB
:10192000809146028E7F80934602AACF8E3D21F49D
:10193000809146028D7FF7CF8F3D09F0A1CF809136
:1019400046028B7FF0CF9C013A9521153F4150F51F
:10195000FC01EE27F170BC0166277270AC014427D0
:1019600054709C012227387094FF0EC080E1EF2B49
:1019700009F480E0672B09F08062452B09F0806450
:10198000232B89F08068089581E0EF2B09F480E033
:10199000672B09F08260452B09F08460232B19F036
:1019A0008860089580E008950F931F93CF93DF938D
:1019B0008B01EA0190916E04943061F58093E90007
:1019C0008FEF9091E800815095FD06C095ED9A95B6
:1019D000F1F700008111F5CF8091E80085FF1AC072
:1019E0000E940004811111C08091E80085FD06C0AD
:1019F0008091E8008E778093E800F2CFF801819122
:101A00008F018093F100219779F78091E8008E771C
:101A10008093E800DF91CF911F910F91089543E0EB
:101A200050E0BC0184E00E94D40C089546E050E0F0
:101A3000BC0184E00E94D40C0895CF93DF93EC01A5
:101A400080911501811111C048E050E0BE0181E094
:101A50000E94D40C80E2FE01ACE4B4E001900D924F
:101A60008A95E1F7DF91CF9108958091470487FF30
:101A700005C040E284E050E0BE01EACF48E081E0EA
:101A8000FACF81E08093E00080E28093D80010924A
:101A9000C9008FE19EE40197F1F700C0000087E0E4
:101AA00090EBDC018093C6049093C704A093C80414
:101AB000B093C90488E19CE00FB6F894A895809390
:101AC00060000FBE90936000FFCF019708F4089567
:101AD000EFE9FFE03197F1F700C00000F6CFCF93B8
:101AE000DF93CDE7D2E060E0CE010E94ED34219695
:101AF000C11584E0D807B9F7DF91CF9108951F93FE
:101B0000CF93DF93122F8430E0F46430D0F44C3064
:101B1000C0F4C42FD0E0CC0FDD1F98E1699FC00D49
:101B2000D11D112490E6899FC00DD11D1124632F72
:101B3000CE0189960E94ED34612FCE018A960E94D3
:101B4000ED34DF91CF911F910895CF93C82F6FEFA0
:101B5000811164ED85E290E00E94ED346FEFC111D8
:101B60006CEA86E290E00E94ED346FEFC1116CE503
:101B700087E290E00E94ED34CF9108950F931F9378
:101B8000CF93DF93843030F5643020F54C3010F57E
:101B9000C42FD0E0CC0FDD1F28E1629FC00DD11D06
:101BA000112430E6839FC00DD11D1124CE018996EA
:101BB0000E94CF34082F10E0102F0027CE018A9604
:101BC0000E94CF349801282BC901DF91CF911F913A
:101BD0000F91089590E080E0F8CF462F20914202C7
:101BE00030914302232B99F4703F39F4603F79F42C
:101BF00080915102909152020895743040F46C30FB
:101C000030F4843020F4672F0E94BE0D089590E0D8
:101C100080E00895CF92DF92FF920F931F93CF93AE
:101C2000DF936C0100911E0280911D02082BC3E01E
:101C3000D0E010E0FC2EC8010C2E02C095958795CF
:101C40000A94E2F780FD0CC02197A0F7F12C8F2DAC
:101C5000DF91CF911F910F91FF90DF90CF9008956A
:101C6000B6018C2F0E94ED0D0E94EB08019761F3E5
:101C7000EECFCF93DF93EC010E940A0EBE010E94CB
:101C8000ED0D0E94EB08DF91CF910895FC01848156
:101C9000882371F087819085009729F00E94EB08D6
:101CA0000E94B00B0895808191810E94390EF8CF77
:101CB00080E00895A6E0B0E0E0E6FEE00C944F344A
:101CC00049835A8349815A819923A1F0222391F0B3
:101CD000CA010E940A0E182F682F89819A810E94DA
:101CE0000C0B69817A81812F0E94ED0D2696E3E02D
:101CF0000C946B34CA010E94D80A182FF2CFFC0151
:101D0000262F87819085009741F44081518162811F
:101D10007381848195810E945A0E08950F931F93B9
:101D2000CF93DF930FE413E0C9EBD1E0CE010E9423
:101D3000CF34F80161918F01681719F0CE010E942C
:101D4000ED342196CD3DF1E0DF0781F7DF91CF91B2
:101D50001F910F9108950F931F93CF93DF930FE47B
:101D600013E0C9EBD1E0CE010E94CF34F80181939A
:101D70008F012196CD3DF1E0DF07A9F7C6E8D3E05A
:101D8000FE0185919491009711F0FC0109952C9624
:101D9000F4E0C238DF07A1F7DF91CF911F910F91D7
:101DA000089585E290E00E94CF34843D89F486E274
:101DB00090E00E94CF348C3A59F487E290E00E9480
:101DC000CF3491E08C3509F090E0892F817008952F
:101DD00080E0FCCF9091480492FB222720F928173D
:101DE00079F080FB92F990934804609147047091D8
:101DF000480484E090E00E940B3582E00E94730B5F
:101E00000895DA019C012E5F3F4FF90145915491ED
:101E1000F90125913491A217B30758F0FC013496CB
:101E2000859194910E94AF340E948E0E90E080E0E4
:101E300008958FEF9FEF0895DB01FC013296259105
:101E400034914217530758F0FC0134966591749110
:101E5000A901CD010E94AF3490E080E008958FEF9A
:101E60009FEF0895AAE0B0E0E8E3FFE00C94463469
:101E700006EB12E084EAC82E82E0D82E9DE2E92E1D
:101E800092E0F92E27E0922E33EAA32E32E0B32E11
:101E900088248394D6010D931D936D014AE050E090
:101EA000B701CE0101960E94BF34F8013896DF01D8
:101EB000892D1D928A95E9F789819A81D801119619
:101EC0009C938E938F8112968C9312978D8113968B
:101ED0008C931397888514968C93149789851596FF
:101EE0008C9315978B819C8117969C938E93169754
:101EF00018961C9218978A8587FF3CC01E961C92E4
:101F00001E921D9780FF03C0D80118968C9281FF06
:101F100004C0F80190859260908782FF07C0D801C5
:101F200018969C911897946018969C9383FF04C010
:101F3000F80190859860908784FF07C0D8011896B3
:101F40009C911897906118969C9385FF04C0F801A6
:101F5000808580628087015F1F4FFAE0EF0EF11CE1
:101F60008DE7E81682E0F80609F094CF2A96ECE0B7
:101F70000C946234F801B686A586C4CFAAE0B0E01E
:101F8000E4ECFFE00C944A34E3E5F2E080E5DF01A5
:101F90001D928A95E9F7EAE7F3E088E3DF011D92F5
:101FA0008A95E9F783E5C82E82E0D82E7F010DEDF2
:101FB00011E0F701D182C0824AE050E0B801CE01C1
:101FC00001960E94BF3488E0FE013196D60101904F
:101FD0000D928A95E1F789859A85D70113969C938E
:101FE0008E931297BAE0CB0ED11CE7E0EE0EF11CF7
:101FF000065F1F4F0D32F2E01F07D9F62A96E8E080
:102000000C946634A8E0B0E0E8E0F0E10C944634CB
:102010008E010F5F1F4F88E0F80111928A95E9F752
:1020200097E5E92E91E0F92E6801AA24A394B12C3A
:10203000F70181917F018F3F09F446C0F894E82FA2
:10204000E295EF70F0E021A18F70A50102C0440F6E
:10205000551F8A95E2F7CA01922F982B91A392A15E
:102060008095892382A3789400C0EBE5F1E021E01C
:1020700030E0912C812C41914F3F09F467C0A42F8F
:10208000A295AF70B0E090968C9190E04F7002C036
:10209000959587954A95E2F780FD58C0C901882A31
:1020A000992A220F331F51E0E736F50721F7F70190
:1020B000319780818F3F11F00E94E30780EA8A9573
:1020C000F1F7F60191828082F2E0CF0ED11C4BE550
:1020D000E41641E0F40609F0ABCF48E050E0B80167
:1020E00085E192E00E94A234892B99F188E0F80101
:1020F000A5E1B2E001900D928A95E1F781E080932D
:1021000014020E9459059093130280931202809149
:102110001202909113020E943E050597F0F048E0EC
:1021200050E065E172E08AE392E00E94A234892BDC
:10213000C9F088E0E5E1F2E0AAE3B2E001900D9297
:102140008A95E1F781E01092140208C090E080E0E7
:10215000A6CF809114028111DACF80E02896ECE0BE
:102160000C94623480E0EFCFCF9380912E03909156
:10217000C204892B8093880180910F02882329F162
:102180008091510390915203892B29F00E944B0AB0
:1021900081110E94090A8091880190910F02892B78
:1021A0008093880180911501882309F447C08091AC
:1021B000470487FF43C08EE1EAE8F1E090E08150F8
:1021C00008F03EC091110E94090AC0913504C095E3
:1021D00080918801C82380913604C82BC093880160
:1021E00040E250E06DEE71E088E891E00E94A23498
:1021F000892B11F180E2E8E8F1E0ADEEB1E0019069
:102200000D928A95E1F7E0913E04F0913F043097FA
:1022100099F080911501882349F08091470487FF48
:1022200005C0C093890186E0809388010280F38114
:10223000E02D88E891E00995CF91089586E0BCCF24
:102240002191222309F4BBCF9F5FB9CF8091130165
:10225000877F809313019091C2049D7F9093C20465
:1022600084FF08C08F7E8093130180912E038260CB
:1022700080932E038091130185FF08C08F7D80938A
:10228000130180912E03806280932E030E94B4106C
:10229000089510922E0380911501EAE8F1E0882359
:1022A00029F18091470487FF21C08EE1DF011D9253
:1022B0008A95E9F790E080E00E948A0590E080E04E
:1022C0000E9465051092C2040E94B41086E0EBE4FF
:1022D000F2E0DF011D928A95E9F710924402109214
:1022E0004502109246020E941407089586E0DECF50
:1022F000AAE2B0E0EEE7F1E10C944F3480E794E01D
:102300002091F100DC012D93CD01B4E088379B07CB
:10231000B9F780917104833009F472C0B8F4813048
:1023200009F449C0823009F4B3C08091E80083FF0A
:1023300096C280917004909171049A3008F08FC217
:10234000E92FF0E0E55DFA4C0C9433348A3009F45F
:102350008EC08B3009F471C0893039F780917004D8
:10236000813219F78091740490917504009711F0EF
:102370000297D9F68091E800877F8093E8008091EA
:10238000E80082FF38C09091F3008091F20002973C
:1023900031F48091F100813011F0863021F4809188
:1023A000F10080934B048091E8008B778093E800E4
:1023B0000E943104BACF80917004813A09F0B5CF00
:1023C0008091E800877F8093E80080917404909169
:1023D0007504892B61F460E28CE494E070E00E9463
:1023E000DD048091E8008B778093E8009ECF60E069
:1023F00090E080E0F3CF80916E048111C0CF95CF43
:1024000080917004813A09F090CF8091740490918A
:102410007504892B09F089CF8091E800877F80932C
:10242000E8008091E80080FFFCCF80911501809347
:10243000F1008091E8008E77B9CF809170048132ED
:1024400009F073CF8091740490917504892B09F081
:102450006CCF8091E800877F8093E8000E94310470
:1024600080917204809315010E9449115ECF809182
:102470007004813209F059CF8091E800877F809302
:10248000E8000E9431048091730480934A044DCF88
:1024900080917004813A09F048CF8091E800877FED
:1024A0008093E8008091E80080FFFCCF80914A048F
:1024B000BECF803899F0823809F0D1C18091740480
:1024C0008F70873008F0CBC18093E9008091EB00DA
:1024D00085FB882780F91092E90006C080916C0482
:1024E00090916D04911182609091E800977F909394
:1024F000E8008093F1001092F1008091E8008E775F
:10250000AAC1882309F498C1823009F0A8C180913A
:10251000720481119BC1809174048F702FEF280F7A
:10252000263008F09CC18093E9002091EB0020FF49
:102530008DC1933031F48091EB0080628093EB0089
:1025400085C19091EB0090619093EB0021E030E029
:1025500001C0220F8A95EAF72093EA001092EA0060
:102560008091EB008860EACF811179C110917204EB
:102570001F778091E3008078812B8093E300809126
:10258000E800877F8093E8000E9431048091E80092
:1025900080FFFCCF8091E30080688093E30082E0BD
:1025A000111183E080936E045AC18058823008F084
:1025B00056C120917204309173042C3DE3E03E0734
:1025C000A1F583E08A838AE289834FB7F894DE011C
:1025D000139620E03EE051E2E32FF0E050935700E5
:1025E000E49120FF03C0E295EF703F5FEF708E2F04
:1025F00090E0EA30C0F0C7968D939D932F5F243111
:1026000059F74FBF8091E800877F8093E8006AE226
:1026100070E0CE0101960E94DD048091E8008B7786
:102620008093E8001CC1C096E7CF8091740490911C
:102630007504432F55274330510509F44AC078F5F6
:102640004130510509F485C08BE590E0E8E9F5E0FB
:102650004230510509F003C12091E800277F209303
:10266000E80020917604309177048217930708F4EC
:102670009C0140E02115310509F070C041116EC088
:102680008091E80082FDC9CF80916E04882329F2F1
:10269000853019F28091E80083FFF2CFBECF41323E
:1026A000510509F447C04232510509F0D8C08330C2
:1026B000910508F0D4C0FC01EE0FFF1FE658FE4F55
:1026C0000190F081E02D89589E4FDC018C9190E0C3
:1026D0001DC0332721303105E9F02115310579F08E
:1026E00022303105F9F02330310509F0B8C0E5E0BA
:1026F000F6E0E4918E2F90E0E5E0F6E007C0EBE530
:10270000F6E0E4918E2F90E0EBE5F6E0009709F417
:10271000A6C0A2CFE3E4F6E0E4918E2F90E0E3E4DC
:10272000F6E0F4CFE3E2F6E0E4918E2F90E0E3E20E
:10273000F6E0ECCF8330910508F091C0880F991F27
:10274000FC01E058FE4F0190F081E02D89E090E01F
:1027500083CF82E190E0E3EFF5E07ECF80916E04DD
:10276000882309F45ACF853009F457CF8091E800C7
:1027700083FD53CF8091E80082FD82CF8091E800F5
:1027800080FF78CF9091F3008091F2002115310500
:1027900019F08830910550F041E0089709F040E0C9
:1027A0008091E8008E778093E80064CF4491409355
:1027B000F1003196215031090196E8CF803809F0B7
:1027C0004EC08091E800877F8093E80080916F047D
:1027D0008093F10092CE811142C0109172041230A8
:1027E000F0F58091E800877F8093E80010936F04F4
:1027F0000E943104112311F084E005C08091E300B0
:1028000087FDFACF81E080936E0442E061EC81E0C5
:102810000E94500442E261EC84E00E94500442E2D3
:1028200061EC82E00E94500442E260EC83E00E948E
:10283000500480916E0413C080917204813079F449
:1028400081E0933009F080E080936D041092E900FC
:102850008091E800877F8093E8000E943104809196
:10286000E80083FF0AC08091E800877F8093E8003A
:102870008091EB0080628093EB00AA96E3E00C94D9
:102880006B34EFE4F3E0128E138E4FEA50E0518385
:10289000408325E0248F88E893E1938382838AE054
:1028A00090E09583848364E170E077836683A8E099
:1028B000B0E0B187A087938782876EE170E075876B
:1028C00064879787868780E590E0918B808BB38BB8
:1028D000A28BA8E2B0E0B58BA48B778B668B518F6F
:1028E000408F158E178E168E91A380A322A30E946F
:1028F0008E0E0E9449111092480410924704E8E499
:10290000F4E0808184608083609147047091480482
:1029100084E090E00E940B350E94AB0E0895A4E184
:10292000B0E0E5E9F4E10C944634C0902704D0907F
:10293000280481E090E0909328048093270498E78E
:10294000A92E94E0B92E912C7501812C1EC0402F28
:1029500083E021E030E0981641F0F801EE0FFF1F10
:10296000EE0DFF1D859194919C01682D892D0E948B
:102970007F0D0F5F1F4F0C30110549F7839498E1CD
:10298000E90EF11CE4E08E1619F010E000E0DFCF54
:102990009394F0E6AF0EB11C84E09812D5CF0E945C
:1029A0004114FE0131967F018AE011928A95E9F780
:1029B0000DED11E04AE050E0B801C7010E94113569
:1029C000065F1F4F0D32F2E01F07A1F77E018BE07B
:1029D000E80EF11C8AE0F70111928A95E9F78FEF72
:1029E0009FEF988B8F8787E08C8B4AE050E0B8018F
:1029F000C7010E941135065F1F4F0D37F2E01F0718
:102A0000A1F7D0922804C09227046496ECE00C94BD
:102A1000623480E00E94A50D60E088E290E00E94B0
:102A2000ED340E948F140E946F0D81E00E94A50D6D
:102A30000895CF92DF92EF92FF928FEF9FEF443095
:102A4000510508F46CC0FB01C080D180E280F380A6
:102A50000E94491180914704C0FA80F9B701A6018C
:102A6000769567955795479540FB81F9B701A60183
:102A700022E076956795579547952A95D1F740FBC3
:102A800082F9B701A60133E076956795579547958A
:102A90003A95D1F740FB83F9B701A601E4E07695BA
:102AA000679557954795EA95D1F740FB84F9B701AB
:102AB000A601F5E07695679557954795FA95D1F774
:102AC00040FB85F9B701A601A6E076956795579575
:102AD0004795AA95D1F740FB86F9B701A601B7E063
:102AE0007695679557954795BA95D1F740FB87F945
:102AF0008093470480914804D0FA80F9D1FACC241D
:102B0000C0F8C0FA81F9809348046091470470913D
:102B1000480484E090E00E940B3590E080E0FF9054
:102B2000EF90DF90CF9008950E9449112FEF84E33A
:102B30009CE0215080409040E1F700C0000088E117
:102B40009CE00FB6F894A895809360000FBE909318
:102B50006000FFCF882341F080959091C2048923C3
:102B60008093C2040E94B4100895882339F0909194
:102B7000C204982B9093C2040E94B4100895882335
:102B800021F00E943D0A0E94B4100895882339F074
:102B900090912E03982B90932E030E94B4100895C9
:102BA000882309F456C0823879F40E94AF0581FF6A
:102BB00050C089E30E949A0A0E94B41089E30E94DF
:102BC0006F0A0E94B4100895833859F40E94AF052B
:102BD00080FF3FC083E50E949A0A0E94B41083E5FB
:102BE000EECF843859F40E94AF0582FF32C087E4EB
:102BF0000E949A0A0E94B41087E4E1CF9CEF980FDC
:102C0000913AE8F290E2980F983050F4877091E092
:102C100001C0990F8A95EAF7892F0E943D0AD1CF0A
:102C20009BE5980F933028F490E080E00E948A059D
:102C3000089598E5980F9B3128F490E080E00E9479
:102C40006505089593E3980F933118F460E00E94AE
:102C5000CB0B0895FF920F931F93CF93DF93F82E22
:102C600000913A0410913B040115110509F449C083
:102C700010923904109238041092350410923604E0
:102C8000D8011696CD91DC919E013A9521153F41D0
:102C900008F4D07ED1E0C11101C0D0E0D80119966E
:102CA000ED91FC911A97309731F01B966D917C91C4
:102CB00080E00995D823DD2339F08CEF8C0F813A21
:102CC00030F58C2F0E946F0AFF2099F0E0913A04B2
:102CD000F0913B04808584FD0CC0809137048823EB
:102CE00041F0808191819C01215031092F333E4771
:102CF000A0F00E94B41010923B0410923A0410927B
:102D00003704C801CDB7DEB7E5E00C9469340E9402
:102D1000B4108C2F0E94D015D7CF0E94BC05E9CFEC
:102D2000CF93DF93EC010E94D015CE010E94A30C3B
:102D30009E01205E31092830310510F0CD2B29F499
:102D40000E94BF15DF91CF9108950E94AA15FACF76
:102D5000CF93C82F8823C9F08238C9F40E94AF05E9
:102D600081FD13C089E30E949A0A0E94B4102FEFDC
:102D700087EE93E0215080409040E1F700C00000D2
:102D800089E30E946F0A0E94B410CF91089583389E
:102D9000A1F40E94AF0580FDF8CF83E50E949A0A56
:102DA0000E94B4102FEF81EE94E0215080409040BB
:102DB000E1F700C0000083E5E4CF8438A1F40E946D
:102DC000AF0582FDE2CF87E40E949A0A0E94B41008
:102DD0002FEF81EE94E0215080409040E1F700C059
:102DE000000087E4CECF8CEF8C0F813A88F580917C
:102DF0001501882301F18091470487FF1CC0EC2F47
:102E0000E695E695E695F0E0E857FE4F828190E082
:102E10004C2F477021E030E002C0220F331F4A954B
:102E2000E2F782239323892B79F08C2F0E946F0A7B
:102E30000E94B41009C0EAE8F1E08191C817A9F333
:102E400021E0E039F207C9F78C2F0E949A0A9BCF44
:102E500080E28C0F883068F4C77021E030E001C058
:102E6000220FCA95EAF780912E03822B80932E03BE
:102E70008ACFEBE5EC0FE33040F4F0E0E25EFE4F8A
:102E8000808190E00E948A0580CFE8E5EC0FEB316D
:102E900050F4F0E0EE0FFF1FEF5DFE4F8081918157
:102EA0000E94650572CF83E38C0F833108F06DCFEC
:102EB00061E08C2F0E94CB0B68CF1F93CF93DF93E1
:102EC000182FEB010E94A816209739F4812F0E9439
:102ED000D015DF91CF911F9108958FE99FE0019761
:102EE000F1F700C000002197EFCF60916F03709160
:102EF0007003893321F060916D0370916E030E941D
:102F00005D1708950F931F93CF93DF93C62FD42F90
:102F1000022FFC0185818823A9F06093C5040E94DB
:102F200059059093C4048093C304C77081E001C025
:102F3000880FCA95EAF70E94C615DF91CF911F91BD
:102F40000F9108958091C504681332C08091C30425
:102F50009091C4040E943E058F3A910548F510E215
:102F60001D0FCD17B9F080E28C0F883040F4C77088
:102F700081E001C0880FCA95EAF70E94BF1518309A
:102F800048F481E09D2F977001C0880F9A95EAF769
:102F90000E94C615802F0E947517183070F6D770E2
:102FA00081E001C0880FDA95EAF70E94BF15C5CF0E
:102FB000C77081E001C0880FCA95EAF7F6CFB0E08C
:102FC000A0E0E5EEF7E10C944834EC018AE0A82E8D
:102FD0002881222309F48FC02130C9F599818A8183
:102FE000913021F422960E94751705C0923029F481
:102FF00022960E94A8162196EBCF933021F42296B8
:103000000E94D015F8CF943011F02196F4CF22967B
:1030100030E020E0AE014F5F5F4F8053990B8A3064
:10302000910550F02150310930F38FE99FE001976D
:10303000F1F700C00000F6CFA29EB001A39E700D74
:1030400011249C01260F371F8981EA01E3CFE22F6B
:10305000F0E0E157F94FB490822F869586958695DA
:1030600090E0FC01E158F94FE4902770F12C022E1A
:1030700002C0F594E7940A94E2F731E0E322FF24DA
:10308000FC01E159F94FC490D12C022E02C0D59415
:10309000C7940A94E2F731E0C322DD24FC01E15A2F
:1030A000F94F049110E002C0159507952A95E2F7B3
:1030B00001701127E114F10419F081EE0E94A816A5
:1030C000C114D10419F086EE0E94A8168B2D0E941F
:1030D0007517C114D10419F086EE0E94D015E114C1
:1030E000F10419F081EE0E94D0150115110509F4C3
:1030F00082CF8CE278CFCDB7DEB7EAE00C946434AF
:10310000CF93DF93EC010E94A30C9E01205E310956
:103110002830310510F0209741F40E94C6158C2FFD
:103120000E94A816DF91CF9108950E94B515F7CFA0
:10313000662329F02091C20422602093C2049C01DE
:1031400030522115304308F499270E9480180895C1
:10315000B0E0A0E0EEEAF8E10C944A346C018B0197
:10316000E42E8091130182FF87C0C0917503D09136
:103170007603CC15DD0521F0C114D10409F07CC023
:10318000809113018B7F8093130181FD6EC080912C
:10319000730390917403A801481B590B81E020919F
:1031A0001101309112014217530708F480E0817039
:1031B000F82E80911301F0FA81F980931301FE013A
:1031C00083E0F695E7958A95E1F7EE71FF27E15DDB
:1031D000FC4F20813181AE014F70552781E090E096
:1031E00002C0880F991F4A95E2F7FF2009F43FC0FB
:1031F000822B932B9183808380912E0381FF08C0C3
:103200008091130180618093130182E00E943D0A46
:1032100080912E0385FF08C0809113018062809306
:10322000130180E20E943D0A6F2DCE010E94981882
:10323000EE2031F080916A0385FF02C086FF30C026
:1032400080916D0390916E030E94650D80917503CE
:10325000909176039C0130522115304308F4992750
:103260000E9490160E94261117C081E0A0CF809581
:10327000909582239323BECFC6019052811590432F
:10328000A0F4C60199270E94901680917503909131
:1032900076038C159D0531F310937403009373032B
:1032A000CDB7DEB7E8E00C946634C601ECCFA9E0F8
:1032B000B0E0EDE5F9E10C9440343C01DC011496FA
:1032C0008C91882399F161E0C3010E947F0E2C014B
:1032D000815A9245D2014F9720F4E0EAAE27E2E509
:1032E000BE27F3019580992009F4CAC2AF3FB1050A
:1032F00009F100F1A935BC4721F01092C801D201B3
:103300005FC08091C80191E089278093C8018091B6
:10331000EC01877059F0F3018581882339F08091A1
:10332000480482FF03C082E00E94730B2996E2E109
:103330000C945C348091C801882309F435C1109243
:10334000C801A03CB10508F088C0A038B10508F05C
:10335000F5C0A034B10508F0BBC021E030E040E08A
:1033600050E060E070E080E090E00A2F0E94773447
:10337000E091A8012E2BE091A9013E2BE091AA013A
:103380004E2BE091AB015E2BE091AC016E2BE091F6
:10339000AD017E2BE091AE018E2BE091AF019E2B13
:1033A0002093A8013093A9014093AA015093AB0147
:1033B0006093AC017093AD018093AE019093AF0127
:1033C000CD0197578038910510F00C946524FA2EA2
:1033D0002FE02A1708F49BCF8FEF93E00E94CF34A1
:1033E000811195CF0DE712E0F11055C319821A82B1
:1033F0001B821C82BB24BA9478014FEFE41AF40AB2
:10340000C8010E94CF3489831A82882309F47FCFB0
:10341000813009F0AAC3680152E0C50ED11CC70172
:103420000E94CF34E82E8A83882309F470CFC60126
:103430000E94CF34F82E8FEF8E0D833008F039C301
:10344000680163E0C60ED11CFB82FF2021F0CE0193
:1034500001960E94DF178601CFCFAF3FB10511F073
:1034600008F07BCF21E030E040E050E060E070E029
:1034700080E090E08D01005C11090E947734E091BA
:10348000C0012E2BE091C1013E2BE091C2014E2BD9
:10349000E091C3015E2BE091C4016E2BE091C50168
:1034A0007E2BE091C6018E2BE091C7019E2B2093CD
:1034B000C0013093C1014093C2015093C301609396
:1034C000C4017093C5018093C6019093C70178CF62
:1034D00021E030E040E050E060E070E080E090E02B
:1034E0008D01005411090E947734E091B0012E2B18
:1034F000E091B1013E2BE091B2014E2BE091B3017E
:103500005E2BE091B4016E2BE091B5017E2BE09132
:10351000B6018E2BE091B7019E2B2093B001309322
:10352000B1014093B2015093B3016093B401709321
:10353000B5018093B6019093B70142CF21E030E00E
:1035400040E050E060E070E080E090E08D010058E5
:1035500011090E947734E091B8012E2BE091B90156
:103560003E2BE091BA014E2BE091BB015E2BE09126
:10357000BC016E2BE091BD017E2BE091BE018E2B34
:10358000E091BF019E2B2093B8013093B901409385
:10359000BA015093BB016093BC017093BD0180934D
:1035A000BE019093BF010CCFA034B10508F06DC0EF
:1035B000E091A801F091A9012091AA012D838090AA
:1035C000AB013091AC013F834091AD014987309010
:1035D000AE012090AF0121E030E040E050E060E03B
:1035E00070E080E090E00A2F0E947734A22EAE2295
:1035F000B32EBF22CD80C422D52ED820EF80E62264
:10360000F984F722082F0321192F12210E949034E8
:1036100009F075CEA03CB10508F09AC0A038B105FC
:1036200008F0FDC0A034B10508F0C8C021E030E0CA
:1036300040E050E060E070E080E090E00A2F0E94FF
:10364000773420953095409550956095709580958C
:1036500090952E233F23AD814A235821BF816B23B0
:10366000E9857E23832192212093A8013093A9012B
:103670004093AA015093AB016093AC017093AD01EC
:103680008093AE019093AF0142CEA038B105F8F41B
:10369000E091B001F091B1015091B2015D83809051
:1036A000B3016091B4016F837091B5017987309057
:1036B000B6012090B70121E030E040E050E060E04A
:1036C00070E080E090E08D01005411098DCFA03CA6
:1036D000B105F8F4E091B801F091B9018091BA0117
:1036E0008D838090BB019091BC019F832091BD018F
:1036F00029873090BE012090BF0121E030E040E0FA
:1037000050E060E070E080E090E08D010058110929
:103710006BCFE091C001F091C1013091C2013D83B6
:103720008090C3014091C4014F835091C5015987D6
:103730003090C6012090C70121E030E040E050E029
:1037400060E070E080E090E08D01005C11094CCFFA
:10375000AF3FB10511F008F069CFA05CB10921E0DD
:1037600030E040E050E060E070E080E090E00A2F60
:103770000E947734209530954095509560957095CE
:10378000809590952E233F23BD814B235821EF81B7
:103790006E23F9857F23832192212093C0013093EA
:1037A000C1014093C2015093C3016093C40170935F
:1037B000C5018093C6019093C701A9CDA054B1095A
:1037C00021E030E040E050E060E070E080E090E038
:1037D0000A2F0E947734209530954095509560953A
:1037E0007095809590952E233F23FD814F2358217E
:1037F000AF816A23B9857B23832192212093B00175
:103800003093B1014093B2015093B3016093B4017E
:103810007093B5018093B6019093B70178CDA0580D
:10382000B10921E030E040E050E060E070E080E08D
:1038300090E00A2F0E94773420953095409550955E
:1038400060957095809590952E233F23ED814E23B2
:103850005821FF816F23A9857A2383219221209308
:10386000B8013093B9014093BA015093BB01609302
:10387000BC017093BD018093BE019093BF0147CD01
:10388000AF3FB10509F060F5A034B10508F0C4C040
:10389000A090A801B090A901C090AA01D090AB015E
:1038A000E090AC01F090AD01E091AE011091AF015C
:1038B00021E030E040E050E060E070E080E090E047
:1038C0000A2F0E947734A222B322C422D522E622F4
:1038D000F722082F0E2319230E94903409F417CDE4
:1038E00080910001882309F413C76201E0EECE1A2B
:1038F000D10830900F028091E901382A80912E037F
:10390000382AF8E0CF16D10408F046C1920127709A
:10391000332781E090E001C0880F2A95EAF79920CB
:1039200009F437C1382AD3018D919C910E94D80A9D
:1039300021E030E0590102C0AA0CBB1C8A95E2F7D5
:10394000E0913A04F0913B04FE83ED832091C9019C
:103950003091CA0138872F83212CE22DF0E0EE0F41
:10396000FF1FEC55FD4F008111810115110509F470
:103970003EC7311005C0D80112968C91811146C105
:10398000F801838190E08A219B21892B09F43EC1B3
:103990008085982F977009F487E0F8E0CF16D1045E
:1039A00008F014C1992009F40DC18695817088230F
:1039B00009F42CC1D801ED90FC90E414F50419F43D
:1039C000992009F423C1ED81FE810E171F0709F428
:1039D0001DC1D8011D96ED91FC91309721F0808199
:1039E000882309F413C1632DC8010E940D068823A2
:1039F00009F40CC1E414F50409F00EC7E114F10454
:103A000009F40FC791100FC7EF81F885EE16FF0676
:103A100009F0FCC0912C07C7A038B10598F4A0901C
:103A2000B001B090B101C090B201D090B301E0906C
:103A3000B401F090B501E091B6011091B701A05426
:103A4000B10936CFA03CB10598F4A090B801B09070
:103A5000B901C090BA01D090BB01E090BC01F090D8
:103A6000BD01E091BE011091BF01A058B10920CF66
:103A7000A090C001B090C101C090C201D090C3011C
:103A8000E090C401F090C501E091C6011091C7011A
:103A9000A05CB1090DCF011534E0130709F437CC50
:103AA000C8010E94CF34811101C0FA940F5F1F4FEB
:103AB0009BCC8BEF8E0D833080F5C8010396FB8283
:103AC0006C01FF2009F4C7CC680174E0C70ED11C5B
:103AD0000E94CF348C83882309F4BDCC0B811C81D8
:103AE00001308FEF180710F0102F002796E0E9162D
:103AF00081F0A7E0EA1649F0C8010E943F2A8091B0
:103B00006D0390916E030E94650DC8010E941A2AF0
:103B1000A2CCC8010E943F2A9ECCB4E0EB129BCC01
:103B20006801E4E0CE0ED11CC80103960E94CF3498
:103B3000FF2009F4ECCB882309F4E9CB8150990BE1
:103B4000B89E9001B99E300D11244F2D4150550B58
:103B5000CA01820F931F019708F47DCCAFE9BFE043
:103B60001197F1F700C00000F6CFCE0101960E9438
:103B7000DF17670170CC80910001882331F010922B
:103B8000000180E00E942A16C2CB81E080930001F0
:103B9000BECB80953822C7CE992009F411C6509229
:103BA000CA014092C9010E944D056093310470938F
:103BB00032048093330490933404109239041092A9
:103BC0003804B1CE82FB882780F9F1CE9920F1F03C
:103BD0008170EDCE0E94D01545C60497813A9105BB
:103BE00048F48E2D0E949A0A992009F491C50E94EA
:103BF000B4108DCB0E94B4108FE39CE90197F1F7CC
:103C000000C000008E2D0E94A816EECF2394A5CEF2
:103C1000FC01208131812415350509F072C5911010
:103C200072C51092370480E0F4C590911301892F7A
:103C30008E7F90FF8160809313010E94261196C5AC
:103C4000809113018E7FF7CF809113018F7E51EE0B
:103C50004516510439F065EE4616510401F5809180
:103C600013018F7D809313018091130180FF2CC07D
:103C7000D30115968C91B8E24B16510480F5EEE114
:103C80004E16510408F082C0F4E04F165104E8F5D6
:103C90008823D1F0109276031092750315C0C201EB
:103CA00090528115904300F78091130182FF0CC060
:103CB00080916C0381FD08C028E232E040E0B80149
:103CC00090E080E00E94A818F201E851FC47E7303C
:103CD000F10508F055C5EB5CFA4C0C94333429E33C
:103CE0004216510468F43DE24316510420F44BE2BD
:103CF0004416510469F690916A0392FDC9CF09C038
:103D000054E645165104B9F3C3CF90916A0394FD6C
:103D1000BFCF882309F49DC090912E0380910F029C
:103D2000282F292B322F3D7FB1F11092760310926C
:103D3000750330916A0331FD2EC0F20143E0F69520
:103D4000E7954A95E1F7EE71FF27E15DFC4F92019F
:103D50002F70332781E090E002C0880F991F2A95C9
:103D6000E2F780959095208131818223932391837E
:103D7000808360E0C2010E94981880910F028D7FBD
:103D80000E94140A82E00E94730BC1CA90916A03D8
:103D900093FD7ECFBECF39E0F301A8E2B2E00190FF
:103DA0000D923A95E1F710922D0210922B0210928B
:103DB0002A0240917503509176034415550591F5FB
:103DC00030916A0335FF2EC04091130141FBFF245F
:103DD000F0F841FF02C036FF25C0409173035091B7
:103DE0007403B801641B750B6F3A7105D8F491FF29
:103DF00008C08091130180618093130182E00E94CA
:103E00003D0A80912E0385FF08C0809113018062D6
:103E10008093130180E20E943D0A6F2DC2010E942F
:103E2000981875CA9091130121FB91F99093130191
:103E30008D7F0E94140A509276034092750310936E
:103E400074030093730380911301846080931301C2
:103E500099CF930140E0B801C2010E94A81857CA47
:103E600026E241EE61EEC3010E94821750CA27E2AA
:103E700045EE65EEF8CF26E241EE60EEF4CF27E2A4
:103E800045EE64EEF0CF26E241EE62EEECCF27E2A3
:103E900045EE66EEE8CF28E241E0EBCF80914704A3
:103EA00081608093470495C0809148048860809326
:103EB00048048FC0809147048260F3CF809147040B
:103EC0008460EFCF809147048860EBCF80914804F5
:103ED0008160EDCF809148048260E9CF80914704F2
:103EE0008061DFCF809147048062DBCF80914704FF
:103EF0008064D7CF0E944911809147048068D1CF58
:103F0000809147048C60CDCF809148048360CFCFEF
:103F1000809147048E7FC5CF80914804877FC7CFAB
:103F2000809147048D7FBDCF809147048B7FB9CFAF
:103F300080914704877FB5CF809148048E7FB7CFAB
:103F4000809148048D7FB3CF809147048F7EA9CFA5
:103F5000809147048F7DA5CF809147048F7BA1CFAF
:103F60000E944911809147048F779BCF809147042D
:103F7000837F97CF809148048C7F99CF80914704AD
:103F800082FB992790F921E0922790FB82F990FB20
:103F900083F987CF80914804982F909591708E7FF8
:103FA000892B90FB81F983CF90914704892F8F7BD8
:103FB00096FF806476CF0E94491190914704892F23
:103FC00097FB87F980586DCF61E08EE090E00E940A
:103FD000ED34609147047091480484E090E00E94C1
:103FE0000B350E94491193C960E0EFCF90914704CF
:103FF000892F8F7E94FF806154CF90914704892F41
:104000008E7F90FF81604DCF90914804892F877FEC
:1040100093FF88604CCFB6E14B16BCE75B06A9F571
:1040200080912E03982F9A7A3091690330FF04C053
:10403000482F447409F090E031FF04C0482F4171CB
:1040400009F090E032FF04C0482F487809F090E072
:1040500033FF03C0827209F090E0222361F081E017
:10406000911101C080E08093CB0189E2911185E339
:104070000E949A0ABCCD8091CB01811104C089E2D3
:104080000E946F0AB4CD85E3FBCFE7E74E16ECE75D
:104090005E0609F460C0F8E74F16FCE75F0609F416
:1040A00065C0222399F023E042162CE7520609F45A
:1040B00081C008F060C041144CE7540609F46DC09B
:1040C00051E045165CE7550609F47AC0D30117960E
:1040D0008D919C91009709F481C00E94EB08182FE4
:1040E000092FD3011596EC9015971696DC90D29473
:1040F0003FE0D3228091EC018770F1F0CE2CEE20CE
:10410000E1F0892F807F803451F080E2810F883088
:1041100098F0D11004C0892F807E803269F08091A0
:10412000480482FF09C082E00E94730B8091EC0179
:104130008770CC24C3948111C12CB02EB2942FE08F
:10414000B222BBE0BB1508F4E1C0EB2DF0E0E45C6B
:10415000FA4C0C94333481E0222351F00E948A0BF4
:1041600043E062E081E00E94460BD1C882E0F4CFD8
:104170000E94660BF5CF6BE546166CE7560661F1BB
:104180007CE547167CE75706E9F08AE548168CE798
:10419000580609F09BCF81E01CC00E9449119FEF97
:1041A000A4E3BCE09150A040B040E1F700C00000A3
:1041B0000E94410D6FEF7FEF90E080E00E940B3591
:1041C0000E9494158091480482FB882780F991E031
:1041D00089270E94EA0E7ACF80E0FBCFF301858128
:1041E00000811181882369F0C8010E940A0EF82E0F
:1041F000682FC8010E940C0BB8018F2D0E94ED0D95
:104200006CCFC8010E94D80AF82EF6CFE02FEF70CD
:10421000FE2E802F807F19F0F29490EFF922EE208D
:10422000B9F0FF2069F080E2810F883010F01111A1
:1042300009C080912E03F82AF0922E030E94B41038
:10424000812F62C08091C204F82AF092C204F6CF96
:10425000812F0E94D015FF2009F458C080E2810F01
:10426000883010F0111104C08F2D0E943D0A06C045
:10427000F0948091C204F822F092C2040E94B4101B
:1042800045C0F02FFF70FF2E802F807F803219F005
:10429000F29480EFF822112339F1113009F4B9C0FA
:1042A000EE2009F4C5C0DD2009F469C020E0D30187
:1042B0004C9111965C91119712966C9112971396EE
:1042C0007C91139714968C91149715969C910E944B
:1042D0005A0E80916C0381FDB3CFF301868180FF7C
:1042E000AFCF8F7086834BC08091480482FD43C05E
:1042F000EE20D9F1FF2039F080912E03F82AF092B8
:104300002E030E94B41080E00E94A8166B2D685006
:10431000770B6430710510F40E94AF05812F902F48
:104320000E94B00B8111C4C11092CD011092CC013A
:10433000CC20A9F08091EC0180FD11C0F301158221
:104340008695869586950E948A0BC3010E9457190F
:104350008091EC018695869586950E94660B60E0BB
:10436000C3010E947F0E0C94961980E00E94D01524
:10437000FF2061F279CFEE2091F1D11004C08F2D92
:104380000E94C615C3CF21E0D21211C0A0900F0227
:104390008F2D8A21F81609F4B9CF0E945905909300
:1043A0000E0280930D02FA28F0920F02AFCF809197
:1043B0006B03823008F4AACFD812A8CF8F2D0E94A9
:1043C000C6158F2D0E94280A8091E9019F2D982300
:1043D000F91609F49BCFF82AF092E90197CFD11092
:1043E0000AC08F2D0E94BF158F2D0E94280A8F2D85
:1043F0000E94650A8BCF80916B03823008F486CFD0
:1044000031E0D31283CF80912E038F2109F47ECF28
:10441000E8CF80917103EE2021F08D1508F476CF5E
:10442000AECFD81608F072CF8F2D0E94BF156ECF79
:10443000DD20D1F380916F0390917003193321F047
:1044400080916D0390916E030E94650D812F0E94F3
:10445000D0155CCF802F86958695837069F081306A
:1044600009F054CF812F902F9370E11002C080E0AB
:1044700090E00E9465054ACF812F902F9370E11044
:1044800002C080E090E00E948A0540CF6E2D812F0F
:104490000E94CB0B3BCF802F837091F5E11036CF7C
:1044A000412F429546954770440F440F812F8F70DE
:1044B000042E01C0880F0A94EAF7212F207114FFFF
:1044C00007C02FE030E001C0220F4A95EAF720959F
:1044D000302F369536953370323069F050F4409174
:1044E0001D02313029F0822B84230E94AD0B0ECFA8
:1044F000842B822BFACF282B80911D028227F5CFA7
:104500008695EE2011F0802F8170882309F4FECE6D
:10451000412F429546954770440F440F812F8F706D
:10452000042E01C0880F0A94EAF7212F207114FF8E
:1045300007C02FE030E001C0220F4A95EAF720952E
:10454000302F369536953370323069F050F4409103
:104550001E02313029F0822B84230E94430BD6CED9
:10456000842B822BFACF282B80911E028227F5CF35
:10457000F02FFF70FF2EEE2029F08F2F0E948A0B64
:10458000812FFECE812F0E94BF158F2D0E94660BBA
:10459000BDCE123F89F160F4103FB9F0113F81F0B8
:1045A000EE2009F480C0D1104BCE802F8F7128C02F
:1045B000133F49F1143FA1F78091480482FD2FC0B9
:1045C000802F8F71EE2011F31BC080917103EE20BC
:1045D00079F0D81608F09ACE202F2F7181E090E064
:1045E00001C0880F2A95EAF790911E028927B5CF5E
:1045F0008D1508F48BCEF0CF802F8F71E110C6CFD0
:104600000E948A0B83CE80E0EE2009F4A6CF81E0E1
:10461000902F9F7101C0880F9A95EAF79ECF8091E5
:104620006B03823040F1EE20D1F09091EC01977055
:10463000943041F40E94440A802F8F710E94660BCF
:10464000C12C64CED816E0F7202F2F71F22E822FC6
:104650000E948A0B63E08F2D0E94960BF1CFD81633
:1046600030F00E94440A64E0802F8F71F5CF81E022
:104670000E94730BE5CFEE2059F0302F3F71F32EDF
:10468000832F0E948A0B63E08F2D0E94960B3ECEF3
:1046900081E00E94730B41E04D1508F037CE82E0B7
:1046A0000E94730B33CED110C5CE802F8F716ECF89
:1046B000EE2019F0D11038CE3BCED11035CE20E00F
:1046C000D3014C9111965C91119712966C911297AF
:1046D00013967C91139714968C91149715969C9130
:1046E0000E945A0E80916C0383FF1ECE8091CC01F4
:1046F0009091CD01029709F017CE812F0E94751776
:1047000013CE992029F0DC0118968C9185FF8BCA75
:1047100080916A0380FFD8CA0E9459058C01F30179
:104720008581882309F490CA8091130182FF08C013
:1047300028E232E040E0B80190E080E00E94A81852
:10474000F4E14F16FCE75F0609F47ACA25E1421648
:104750002CE7520609F469CA33E143163CE75306D5
:1047600029F480911301816080931301C20190525A
:104770008115904308F078CA109276031092750361
:10478000D30115962C91222309F445CC1092C5042F
:10479000C2019057839708F03ECC84E090E00E94DD
:1047A000D7349093480480934704F201E150F047D6
:1047B000E232F10508F072CBE85BFA4C0C9433342A
:1047C0008091C9019091CA018415950581F41092D8
:1047D000CA011092C9011092310410923204109251
:1047E00033041092340410923904109238048091EA
:1047F0003A0490913B04009709F48ACFA8E0CA16C6
:10480000D10408F005CA632D0E940D06811180CFE6
:1048100081E00E942A167CCFE114F10409F0F4C86B
:10482000912CF12CE12C80E00E942A1610933B047D
:1048300000933A0481E080933704D80115968C9157
:104840008093350491100EC0EF2861F0D8018D914E
:104850009C919C0124503109213A310508F0BAC9D4
:104860000E946F0AF801E680F780C7019A958115CA
:104870009F4110F420EEF222BB24B394C7010197AC
:104880008F339E4708F0B12CD8011996ED91FC9119
:104890001A97309731F01B966D917C9181E00995C4
:1048A000B822BB2079F0F801868197810E94A30C81
:1048B00080933604C701F8E0CF16D10408F08DC903
:1048C0000E94BC050E94B4108FC9AE35ECE7BE074C
:1048D00009F45BC9AF35FCE7BF0709F450C9AD3532
:1048E0002CE7B20709F447C92D010C94701CCF9333
:1048F000DF938091E601807F09F04DC08091E50152
:10490000882309F448C0E091C10450917804C09113
:10491000E101D091E0016091E2017091E30149E091
:104920005E17C9F18E2F90E0E49FF0011124E75843
:10493000FB4F2481222391F1489FF001499FF00D04
:104940001124DF01A758BB4F11962C9111972C13FE
:1049500025C02C912D1322C015962C91159721114D
:104960001DC012962D913C91261B370B2F3A310515
:10497000A8F48091E6018F7080618093E601E15890
:10498000FB4F80818F708061808380EE91E00E9478
:1049900057190E94CE0ADF91CF910895FC013196FC
:1049A000E770BECFA8E1B0E0E8EDF4E20C94453446
:1049B0008C0186E0F801DE01539601900D928A95F4
:1049C000E1F7D80114969C9014971596EC9080EE20
:1049D000A82E81E0B82E8091E40181112AC09110A7
:1049E00003C0FF24F3941CC0EE20F9F0C8010E941C
:1049F000460EF82E8823C9F089E0F801A0EEB1E058
:104A000001900D928A95E1F78091E401813031F4B3
:104A10008091E0019091E1010E94390E0E9477247B
:104A20008F2D6896EDE00C946134C8010E945719EF
:104A3000D8CFF80170808180C280D38060E080EEA2
:104A400091E00E947F0EF090E5018091E20190914B
:104A5000E301FF2009F425C19601281B390B2F3AE9
:104A6000310508F0D1C0992009F4BBCF2091E101B4
:104A7000D80111969C9111978091E601382F307FD3
:104A800009F071C029131FC02091E0019C912913E6
:104A90001AC04091E7015091E80117962D913C9181
:104AA0004217530781F4E11054C08F7080618093E6
:104AB000E60180EE91E00E9457198091E601F8012D
:104AC0008683F12CADCFE11044C0682D872D0E9464
:104AD000C203E82E882381F080916C0380FFF1CF20
:104AE00080EE91E00E94571989E0E0EEF1E0DF01ED
:104AF0001D928A95E9F7E5CF7B8A8C8A8B899C8900
:104B00000E94390E292F22952F70243058F49F705F
:104B1000223088F0992399F0F8019681907F79F4FA
:104B2000FE2C7ECF2A5F2F70223068F0C8010E94D1
:104B30005719EF2CF5CF992311F0882389F3805E64
:104B4000883070F3F3CF803F58F3815F833070F784
:104B5000E7CF8091E60181608093E60180916C034C
:104B600081FDAFCFBDCF291320C02091E0019C91E2
:104B700029131BC04091E7015091E80117962D9130
:104B80003C9118974217530781F4E1100EC0169616
:104B90008C93C8010E94571989E0F801A0EEB1E09A
:104BA00001900D928A95E1F73BCFC8010E94460E15
:104BB000882309F43ACFEE2009F437CF8091E6013B
:104BC0008032B8F02091E0013091E1013B872A87E3
:104BD000DD86CC869091E4019E871F86888B80912C
:104BE000E7019091E8019A8B898BCE010A960E9489
:104BF000571989E0F801A0EEB1E001900D928A9575
:104C0000E1F70E947724EDCE8091E601982F907F06
:104C100009F466CF992009F4E4CE2091E101F8016E
:104C2000918129131AC02091E0019081291315C0A8
:104C30004091E7015091E8012781308542175307E1
:104C400061F4E1100AC08683C8010E94571989E007
:104C5000D5011D928A95E9F7E3CEC8010E94460E60
:104C6000882309F4E2CEEE2009F4DFCE8091E6013C
:104C7000803208F4BECF2091E0013091E1013A8307
:104C80002983DC82CB829091E4019D831E828F83F5
:104C90008091E7019091E80199878887CE0101967C
:104CA000A6CFC81AD90ABFEACB16D10480F699203C
:104CB00009F497CEFE2CEE2009F4B7CE9091E101D5
:104CC000F8018181981322C09091E00180819813AE
:104CD0001DC02091E7013091E80187819085281758
:104CE0003907A1F49091E60190FD56CF907F09F429
:104CF00053CF8091E6018683903F09F44ACF982FE5
:104D0000907F905F8F70892B868343CFC8010E946C
:104D1000460E81116ECF8091E60181608093E6019D
:104D2000C8010E9457197CCEA2E1B0E0EAE9F6E2A0
:104D30000C944E340A871B872C873D874E875F87EC
:104D4000688B798B8A8BCE010A960E94D2248111BE
:104D50000CC089E0FE013A96DE01119601900D9299
:104D60008A95E1F78E8581110BC019E08091C1040D
:104D700090917804891331C06296E4E00C946A340F
:104D80002091780430E0C9010196877099274091FD
:104D9000C1044817190699F099E0929FD001939F9A
:104DA000B00D1124A758BB4FFE01319601900D9212
:104DB0009A95E1F7809378040E94CE0AD6CF0E949C
:104DC0004911109278041092C10489E0E0EEF1E0FC
:104DD000DF011D928A95E9F7C8CF819FC001112498
:104DE00087589B4F0E94D224882331F28091C104BE
:104DF00090E00196877099278093C104B7CFEF9216
:104E0000FF920F931F93CF93DF938091B203882378
:104E100061F0E09179038DE0F82E8091B203E817FC
:104E200048F01092B20310927903CDB7DEB7E6E0F6
:104E30000C946834EE24E394EE0EE0927903CE2FC6
:104E4000D0E0EF9DF0011124ED54FC4F84818823C4
:104E5000E9F087819085892B21F4818592850196DF
:104E600059F4008111812281338144815581668109
:104E7000778180850E949426FC9EF001FD9EF00DB6
:104E80001124ED54FC4F14821092C204EE2DC5CFB4
:104E9000109226041092250410921401809124048B
:104EA000809323040E945B060E94FF260895B0E0D1
:104EB000A0E0EDE5F7E20C944134C091230497E0C3
:104EC000992E01E010E02DE0322E34E0432E5524DF
:104ED0005394809124048C1309C00E94FF260E94E1
:104EE0005B06CDB7DEB7E1E10C945D34D0E0FE01A6
:104EF000EE0FFF1FE55EFB4F80819181989ED001F0
:104F0000999EB00D1124A658BC4F14962C9114975D
:104F1000211159C06090B203E3EBF3E030E020E0F0
:104F2000812C5D01261508F04CC0E384F484D50182
:104F3000CD90DC906FEF7FEF712C472D50E0DA01C0
:104F4000AA0FBB1FAC0DBD1D0D90BC91A02D1097DD
:104F500031F0EA16FB0609F4BA017394EECF6F3F05
:104F60007607A9F1D80102C0AA0FBB1F6A95E2F724
:104F70008A2AB801072C02C0660F771F0A94E2F74D
:104F8000AB01415051098416150601F5329EF0011E
:104F9000339EF00D1124ED54FC4F989ED001999E44
:104FA000B00D1124A658BC4F12962D913C91139729
:104FB00030872783448210821182928781871596D9
:104FC0005C920E942D062196C37083CF14822F5FBE
:104FD0003F4F3D96A7CFAEE1B0E0E1EFF7E20C9492
:104FE00040344B8B5C8B6D8B7E8B8F8B988F8823A3
:104FF00049F08091CC019091CD0101969093CD0123
:105000008093CC01888D81111092C204188A198A6C
:105010001A8A86E0FE017396DE011A9601900D92BF
:105020008A95E1F78091480482FF1EC08091510368
:1050300090915203892BC1F00E9459052091EA01F9
:105040003091EB01821B930B20915103309152035D
:105050008217930720F08091EC0182FFE7C10E9444
:105060004B0A81110E94090A8E85882389F061E02C
:10507000CE010A960E947F0E6C018F8520E5C21634
:105080002CE7D20689F4882329F181E0809314016A
:105090000A851B852C853D854E855F8568897989C4
:1050A0008A890E949426CDC031E5C3163CE7D30619
:1050B00029F4882379F00E944827EACF42E5C416F4
:1050C0004CE7D40639F4882329F08091140181112A
:1050D000F2CFDBCF9AE7E92E93E0F92E412CB12CE9
:1050E000A12C88248394912CBE016F5F7F4F7A8F0F
:1050F000698F22242394F7014081518166246A94A8
:10510000762C20E0822F90E0FC01EE0FFF1FE40FD1
:10511000F51F608171816115710531F0C616D706E2
:1051200009F43C012F5FEECF312CFFEF6F167F06A5
:1051300009F448C0F701448130901401832D4111D6
:1051400080E0F82FF1703F2EF701558086819F8512
:10515000992309F4F7C0332009F4F4C000916503E2
:1051600010916603511013C0A401062C01C0440F16
:105170000A94EAF7842B86838091770390917803D1
:105180008017910720F41093780300937703C401EC
:1051900002C0880F991F2A95E2F70197F70126812F
:1051A0002817190679F48091250490912604009718
:1051B00009F44BC00E943E050817190708F045C0C6
:1051C000F70124824328FFEFAF1ABF0A27E0E20E5F
:1051D000F11C38E0A316B10409F08DCF8F85882328
:1051E00009F410C1442009F40DC10E94590590939F
:1051F0002604809325048091B203883010F591E055
:10520000980F9093B20399E0FE013A96DE01119651
:1052100001900D929A95E1F74DE0849FC001112411
:105220008D549C4F29E0FE013196DC0101900D92D6
:105230002A95E1F72FEF3FEFFC0132872187D486D3
:10524000C3866E96E2E10C945C3480912304509105
:105250002404982FF0E0E0E0851314C09093230419
:10526000EE16FF0609F4AECF90E0FC01EE0FFF1F33
:10527000E55EFB4FB182A0820196837099278093EF
:105280002404A0CF682E712CF301EE0FFF1FE55E02
:10529000FB4F20813181F7E0F29FD001F39FB00DE9
:1052A0001124A658BC4F2D913C9111973E8F2D8F04
:1052B00040E020E030E0E32FF0E0EE0FFF1F6D8DC7
:1052C0007E8DE60FF71F0081118101151105E1F0B8
:1052D000F7010190F081E02DFC8FEB8F20E005C0FD
:1052E0000617170709F4432D2F5FE22FF0E0EE0FAA
:1052F000FF1F6B8D7C8DE60FF71F6081718161153B
:10530000710571F73F5FD7CF4423C9F0F701231729
:1053100008F0FD012482EE16FF0621F49093230489
:10532000342E50CF981305C0AE17BF0711F49F5FFE
:10533000937093012F5F3F4F822F83708DCFF0E0EA
:10534000E0E0F7CF90E0511020C0B40102C0660F3A
:10535000771F2A95E2F79B012150310982179307A5
:1053600031F4442309F44CC0C5010E942D06C40148
:10537000062C01C0880F0A94EAF7982F9095F70140
:10538000868189238683352C1DCFAC01062C02C073
:10539000559547950A94E2F7BA01617077279C0109
:1053A0002150310982239323892B31F5672B21F179
:1053B000F70182819381892BE1F0E98DFA8D27E055
:1053C00011922A95E9F70E945905282F8B839C8317
:1053D00034E03D83F70182819381782F8887998714
:1053E00009811A813C8144E05E816F81892F0E948E
:1053F0009426F7011582BBCFF42FF1705F2EB7CF43
:10540000532CB5CF9091230480912404981729F050
:105410000E945727411015CF3BCE0E94FF261092C5
:105420002604109225040E945B06F4CF82E00E94BD
:10543000730B15CEA6E0B0E0E0E2FAE20C94503433
:105440009093520280935102811520E2920730F42A
:105450000E9490162696E2E00C946C3480EF8983CB
:105460008A830E9459058160682F9C838B834981C0
:105470005A817C8181E090E00E94EB27EBCFA6E08F
:10548000B0E0E5E4FAE20C94503490935202809339
:105490005102811520E2920730F40E94801826966E
:1054A000E2E00C946C3480EF89838A830E94590572
:1054B0008160682F9C838B8349815A817C8181E044
:1054C00091E00E94EB27EBCFA6E0B0E0EAE6FAE23B
:1054D0000C944E340E9459058C01809110029091D9
:1054E00011028017910781F019821A820E945905D2
:1054F000682F49815A81792F80E090E00E94EB2744
:1055000010931102009310022696E4E00C946A3482
:105510001F920F920FB60F9211242F933F934F9328
:105520005F936F937F938F939F93AF93BF93CF932B
:10553000DF93EF93FF93D091E900DF708091EC004F
:10554000C82FC17080FDC0E81092E9008091F00082
:10555000877F8093F00078940E9478111092E90080
:105560008091F00088608093F000CD2BCF70C093C5
:10557000E900FF91EF91DF91CF91BF91AF919F91A2
:105580008F917F916F915F914F913F912F910F90EC
:105590000FBE0F901F9018951F920F920FB60F928B
:1055A00011242F933F934F935F936F937F938F9328
:1055B0009F93AF93BF93EF93FF938091E10082FF9E
:1055C00009C08091E20082FF05C08091E1008B7FDD
:1055D0008093E1008091DA0080FF24C08091D800A0
:1055E00080FF20C08091DA008E7F8093DA00809166
:1055F000D90080FF9DC080E189BD82E189BD09B4E9
:1056000000FEFDCF81E080936E04809149048111FA
:1056100009C00E94E1030E9482048091E20084603C
:105620008093E2008091E10080FF17C08091E2004A
:1056300080FF13C08091E2008E7F8093E200809112
:10564000E20080618093E2008091D80080628093C4
:10565000D80019BC85E080936E048091E10084FF3E
:105660002BC08091E20084FF27C080E189BD82E1E8
:1056700089BD89B5982F917080FFFBCF8091D800AC
:105680008F7D8093D8008091E1008F7E8093E10030
:105690008091E2008F7E8093E2008091E200816041
:1056A0008093E20080916F04882309F447C084E06E
:1056B00080936E0480916E048091E10083FF27C087
:1056C0008091E20083FF23C08091E100877F809377
:1056D000E10082E080936E0410926F048091E100FB
:1056E0008E7F8093E1008091E2008E7F8093E200C4
:1056F0008091E20080618093E20042E060E080E01F
:105700000E9450048091F00088608093F000FF9127
:10571000EF91BF91AF919F918F917F916F915F9129
:105720004F913F912F910F900FBE0F901F901895A2
:1057300019BC10926E041092490474CF8091E3005A
:1057400087FD93E090936E04B5CF78941F921FB6B7
:105750001F9211248F939F93AF93BF938091430423
:1057600090914404A0914504B09146040196A11D76
:10577000B11D8093430490934404A0934504B093D7
:105780004604BF91AF919F918F911F901FBE1F90B4
:1057900018951F921FB61F9211248F939F93AF935A
:1057A000BF9380914204811113C080914304909172
:1057B0004404A0914504B09146044196A11DB11D39
:1057C0008093430490934404A0934504B09346040B
:1057D000BF91AF919F918F911F901FBE1F90189501
:1057E000CDB7DEB7E0970FB6F894DEBF0FBECDBFE2
:1057F00085B7806885BF85B7806885BF84B7877F98
:1058000084BF0FB6F894A89580916000886180935A
:105810006000109260000FBE80E890E00FB6F89430
:1058200080936100909361000FBE81EE97E09093AA
:105830008701809386010E94BE0F0E94320F0E9452
:10584000AB0E0E94E1030E9482048091E20084601A
:105850008093E200789480916E048823A1F01091E7
:10586000E9001F709091EC00892F817090FD80E815
:10587000182B1092E9008091E80083FD0E947811B6
:105880001F701093E90082E084BD93E095BD9AEF0C
:1058900097BD80936E000E94D10E811102C00E94BC
:1058A000091581E0809333023E98469A3F98479AC3
:1058B0008FE891E00197F1F700C0000040913302BA
:1058C00064E372E0FB018E2F861B841708F4C0C0CE
:1058D00087E30E94E30786EF0E94E30786E30E94C6
:1058E000E30786E60E94E3070BE511E087E6E82E72
:1058F00081E0F82ED8018D918D018F3F11F00E942B
:10590000E307E016F106B1F788E0EAE3F2E0DF0131
:10591000282F1D922A95E9F7E5E1F2E0DF011D92BB
:105920008A95E9F790E080E00E94D734863E9E4F4A
:1059300021F40E94D10E811167C066EE7EEF90E0E7
:1059400080E00E940B3560E082E090E00E94ED3440
:1059500060E083E090E00E94ED3410921D0260E070
:1059600074E184E090E00E940B3560E086E090E016
:105970000E94ED346FEF87E090E00E94ED3440E04C
:1059800050E0BA0188E090E00E94FF3460E084E2D9
:1059900090E00E94ED3460E087E190E00E94ED34F9
:1059A00060E08CE090E00E94ED3460E08DE090E0FB
:1059B0000E94ED3419821A821B821C821D821E8273
:1059C0001F82188648E050E068E170E0CE01019641
:1059D0000E94DD3440E050E0BA0180E290E00E9495
:1059E000FF3480E00E94A50D0E94091540E050E0C0
:1059F000BA018FE090E00E94FF3440E050E0BA012D
:105A000083E190E00E94FF3482E090E00E94CF3476
:105A100080931F0284E090E00E94D7349093480462
:105A2000809347040E940210EFE3FCE93197F1F7FD
:105A300000C000000E94021080913A0280FF19C04D
:105A40006FEF7FEF90E080E00E940B350E94410DE8
:105A500086B186FB882780F926B130E0220F232FFC
:105A6000221F330B90E0232B09F092E0892B8193C6
:105A70002ACF83E090E00E94CF340E94AD0B81E0FA
:105A800091E090933F0480933E0480916E0400E186
:105A900012E1853009F492C00E94021010E2A12E9A
:105AA00012E0B12E0AE3802E02E0902ED401F5011F
:105AB000219131918D919D9142E0E832F40709F4F2
:105AC00087C028173907A1F3712C55245394D401AA
:105AD0000D911D914D01F501C190D1905F01C0164E
