:1000000066C400009CC400009AC4000098C40000AC
:1000100096C4000094C4000092C4000090C4000084
:100020008EC400008CC400000C94192D0C94E62D95
:100030000C948B2784C4000082C4000080C400009C
:100040007EC400007CC400007AC4000078C40000B4
:1000500076C400000C94122872C4000070C4000022
:100060006EC400000C94581D6AC4000068C40000EF
:1000700066C4000064C4000062C4000060C40000E4
:100080005EC400005CC400005AC4000058C40000F4
:1000900056C4000054C4000052C4000050C4000004
:1000A0004EC400004CC400004AC400003A71210054
:1000B0003A7721000102E3200103E30104323030EA
:1000C0007C0101E6003C2D00253E2500294114005D
:1000D0001A000800150017001C0018000C4112003F
:1000E00013002A00E00004001600070009000A00BF
:1000F0000B000D000E000F0033003400E2001D4520
:100100001B00060019000500050011001000360054
:100110003745280000002552E3002B42E100000093
:1001200000002C002352E644255200000100E100AB
:1001300001000100010001000100010001000100B7
:1001400001000100010001000100010001000100A7
:100150000100010001000100010001000100010097
:100160000100010001000100010001000100010087
:1001700001000100000001000100D100D3000000D7
:100180000000D200010001000100000035001E0047
:100190001F0020002100220023002400250026004B
:1001A0002700310001000100430044004500010028
:1001B00001002D002E002F003000380001003A0011
:1001C0003B003C003D003E003E003F00400041003F
:1001D00042000100000001000100010001000000D8
:1001E00000000100010001000100000035021E02B4
:1001F0001F022002210222022302240225022602DB
:10020000270231020100010001000100010001008C
:1002100001002D022E022F023002380201000100DF
:1002200001000100010001000100010001000100C6
:1002300001000100000001000100010001000000B8
:1002400000000100010001000100000001000100A8
:10025000010001000100010001004A004D004B00B7
:100260004E004600390001000100010001000100BC
:100270005000510052004F00A90001000100010090
:10028000010001000100010001000100A800AC0014
:10029000AB00AA0000009E01010001000100000067
:1002A0000000665201000100645200000100447E1B
:1002B000437E01000100010001004A004D004B0097
:1002C0004E004C000100010001000100010001008E
:1002D0005000510052004F00407E0100010001001B
:1002E000010001004C002A00010001000100417ED4
:1002F00001000100000001000100010001000000F8
:10030000000001006452427E0100000029001E002E
:100310001F002000210022002300240025002600C9
:1003200027002A0039002400410042004300440015
:100330004500210022002300010001003A003B009B
:100340003C003D003E003F00010027001E001F0052
:100350002000010000000100010001000100000078
:1003600000000100010001006652000044454255B2
:10037000473A2064697361626C65642E0A004445E3
:100380004255473A20656E61626C65642E0A000A28
:100390000025303258006C65645F7461736B3A20DD
:1003A000004F6E6573686F743A2061637469766597
:1003B0003A2025640A000A002530313662003A20CE
:1003C0000025303258000A722F6320303132333426
:1003D00035363738394142434445460A00290A0038
:1003E0002575002F002575005D280025640020007C
:1003F000256400200025640020002564007C002581
:10040000303258006D6F7573656B6579205B62746F
:100410006E7C782079207620685D287265702F6167
:10042000636C293A205B0000000000000000002AF5
:100430002B28000000000000000000000000000069
:10044000000029000000002C1E3420212224342624
:1004500027252E362D3738271E1F2021222324251D
:10046000263333362E37381F0405060708090A0BD2
:100470000C0D0E0F101112131415161718191A1B44
:100480001C1D2F3130232D350405060708090A0BE2
:100490000C0D0E0F101112131415161718191A1B24
:1004A0001C1D2F3130354C00000000000000000002
:1004B000000000000000000000000000000000003C
:1004C00000000000000000000000007E0F00D4FFCC
:1004D000FFFFC70000007820636F6D6D616E643AA6
:1004E0002025582C20726573756C743A2025582C81
:1004F000206572726F723A202558200A007073329C
:10050000206D6F75736520736574207374726561F7
:100510006D206D6F64650020636F6D6D616E643A70
:100520002025582C20726573756C743A2025582C40
:10053000206572726F723A202558200A007073325B
:10054000206D6F75736520656E61626C65206461F6
:100550007461207265706F7274696E670020636FDA
:100560006D6D616E643A2025582C20726573756C30
:10057000743A2025582C206572726F723A202558E3
:10058000200A00707332206D6F7573652064697383
:1005900061626C652064617461207265706F727451
:1005A000696E67007073325F6D6F7573653A2066B0
:1005B00061696C20746F20676574206D6F75736559
:1005C000207061636B65740A0020726573756C74CA
:1005D0003A2025582C206572726F723A20255820D7
:1005E0000A007073325F6D6F7573655F696E697451
:1005F0003A20726561642044657649440020726542
:1006000073756C743A2025582C206572726F723A9B
:10061000202558200A007073325F6D6F7573655F17
:10062000696E69743A207265616420424154002009
:10063000636F6D6D616E643A2025582C207265736E
:10064000756C743A2025582C206572726F723A20AE
:100650002558200A007073325F6D6F7573655F698E
:100660006E69743A2073656E64696E672072657393
:10067000657400706275663A2066756C6C0A00508D
:100680005332205553415254206572726F723A2092
:100690002530325820646174613A20253032580A7E
:1006A000000A002530325820006B6579626F617254
:1006B000645F7265706F72743A200064656C5F6B82
:1006C00065795F6269743A2063616E27742064659E
:1006D0006C3A20253032580A006164645F6B65799A
:1006E0005F6269743A2063616E2774206164643AC2
:1006F00020253032580A005B735D005B575D005B5C
:10070000535D005B525D005B445D005B435D002612
:100710000341006C00700068006100200053007409
:10072000006100670067006500720020004A004415
:10073000003400350000000C03470061006C0076B7
:1007400000790000000403090409025B00030100B2
:10075000A0FA0904000001030101000921110100B0
:10076000012240000705810308000109040100017E
:100770000300000009211101000122B600070582D3
:1007800003200001090402000203000000092111F6
:100790000100012222000705830320000107050351
:1007A00003200001120100020000000834127856F4
:1007B0000100010200010631FF0974A1010975154C
:1007C0000026FF009520750881020976150026FF96
:1007D00000952075089102C005010902A10185025A
:1007E0000901A1000509190129081500250195082D
:1007F000750181020501093009311581257F9502B6
:100800007508810609381581257F950175088106CF
:10081000050C0A38021581257F950175088106C0EF
:10082000C005010980A101850319012AB70015013E
:1008300026B700950175108100C0050C0901A101C2
:10084000850419012AA002150126A0029501751040
:100850008100C005010906A1018506050719E029E7
:10086000E715002501950875018102050719002982
:10087000EF1500250195F075018102050819012980
:1008800005950575019102950175039101C005015A
:100890000906A101050719E029E7150025019508BA
:1008A000750181029501750881010507190029FF6D
:1008B000150026FF00950675088100050819012915
:1008C00005950575019102950175039101C01124EB
:1008D0001FBECFEFDAE0DEBFCDBF04B603FE18C007
:1008E0008091BE039091BF03A091C003B091C1035A
:1008F0008730904BA740B04B59F41092BE03109232
:10090000BF031092C0031092C103E0E0F8E3099521
:1009100011E0A0E0B1E0E6E4F1E602C005900D923E
:10092000A83AB107D9F723E0A8EAB1E001C01D92C7
:10093000AE3BB207E1F70E949F160C94623060CB89
:10094000FF93EF93E091A801F091A901309709F08E
:100950000995EF91FF910895FC018591803011F088
:10096000EFDFFBCF0895FF27E0E230E247FF0CC046
:10097000419597FF09C0EDE260957095809590953F
:10098000611D711D811D911D27FF02C0219530E35E
:1009900050E2AA27660F771F881F991FAA1FA41766
:1009A00010F0A41B63955A95A9F7AA3008F0A95F27
:1009B000A05DAF93F395611571058105910541F730
:1009C000ED3211F4EF93F395F21718F43F93F3958A
:1009D000FBCF8F91B5DFFA95E1F70895E991F99191
:1009E0008591803021F0853219F0AADFF9CF089582
:1009F00020E0E89455915532C1F3503311F46894D6
:100A000055915A3348F4505390F3220F022E220F7F
:100A1000220F200D250FF4CF0EF421958991999185
:100A2000533619F3533729F1533559F1BC0188274F
:100A30009927E8945C3621F48991999168945591AD
:100A4000543639F446EF7EF077FF0DC08FEF9FEFFD
:100A50000AC055374AE039F0583540E121F05236A6
:100A600042E009F00895FF93EF937DDFEF91FF914E
:100A7000B7CFFF93EF93FC0181918030B9F360DF32
:100A8000FBCFFF93EF9368DFF1CFDF93CF93CDB729
:100A9000DEB72596A3DFCF91DF910895FB01823465
:100AA0002EE7920741F148F480342EE7920799F03F
:100AB00081349E47C9F081E0089583342EE7920780
:100AC00009F184349E47B9F782818823A1F360E05D
:100AD0008CEA90E006C08281882369F360E088ECAC
:100AE00090E00E94D91AE7CF8281882321F360E049
:100AF00085EC90E0F6CF82818823E9F260E084EB18
:100B000090E0EFCF82818823B1F260E080EB90E04B
:100B1000E8CF893221E4920769F028F48C309144BF
:100B200049F081E008958D3125E4920719F087336B
:100B30009544B9F780E008958D3125E4920789F056
:100B400048F48C3021E4920761F08932914449F0F5
:100B500081E008958A3225E4920719F0873395449D
:100B6000B9F780E0089521E0863E934409F020E043
:100B7000822F0895893221E4920791F050F489324E
:100B800024E2920781F08C30914451F086E990E0A4
:100B900008958D3125E4920719F087339544B1F714
:100BA0008FEA90E0089588EC90E008958730B8F4DB
:100BB0006430A8F44C3098F450E09CE0699F400DFC
:100BC000511D1124FA0190E3899FE00DF11D1124BC
:100BD000EE0FFF1FE453FF4F85919491089581E03C
:100BE00090E00895E3CF089581E0089557CF0895E8
:100BF0000895FECF0895A5E0B0E0E1E0F6E00C94A2
:100C0000B32F49835A833091AF0189819A81311181
:100C100016C0662389F0222379F099D6182F682F01
:100C200089819A8172D669817A81812F0E94081404
:100C30002596E3E00C94CF2F79D6182FF4CF87D6E2
:100C400069817A81F3CFFC01262F868197810097F5
:100C500031F440815181628173818481CCCF0895C8
:100C6000CF93DF93EC0161E0EEDFBE010E9428200C
:100C7000DF91CF910895CF93DF93EC0160E0E3DF44
:100C8000BE01B7DFDF91CF9108950895D3D2FDDF84
:100C90002FEF84E39CE0215080409040E1F700C0BA
:100CA00000000895F3DF0C9436280895EFDF0C94CC
:100CB0005A280895A2E0B0E0E0E6F6E00C94B22FE6
:100CC0008C0161E0C0DF9A838983B801CE0101966F
:100CD0000E94FD21811105C080E02296E4E00C9481
:100CE000CE2FB80189819A8181DF8823A9F3B801C9
:100CF00089819A810E946025882371F3B8018981D6
:100D00009A810E94A019882339F3B80189819A81B8
:100D10000E94D321882301F3F8018281882379F08E
:100D200089819A818330FCE79F0769F158F481300B
:100D3000ECE79E0751F1B0F481159C4789F0C8019A
:100D400053DFCBCF8B35ECE79E0721F18C35FCE7E9
:100D50009F07E9F08A359C4791F70E948211EFCFF7
:100D6000A1DFBACF90916E02892F8E7F90FF8160B4
:100D700080936E0280FF04C08EE793E0EDDDACCF80
:100D80008CE693E0FBCF0E94881190DFA5CF0E94F4
:100D90007911D5CF0E948511D2CF0E946B2765C0F3
:100DA000089566D00C946F270895292F332740E0CB
:100DB0002115310511F0C90148E09C0164E0369528
:100DC00027956A95E1F72115310511F04C5FC901AE
:100DD0009C0136952795369527952115310511F0FB
:100DE0004E5FC90196958795892B09F04F5F842F37
:100DF0000895829590E09C01220F331F220F331F2C
:100E00002C7C95958795959587958373282B30E055
:100E1000C901880F991F8A7A359527952575822BE8
:100E20000895CF93DF93D92FE4DFC82F8D2FE1DF13
:100E30009C2FDF91CF910895089581E00895089542
:100E4000CF93DF93D82FF9DFC82F882311F08D2F90
:100E5000F6DF8C2FDF91CF9108950895CF93C82F9F
:100E6000EBDF8C2FEDDFCF91089580E0F7CF089571
:100E70000E94AD25F3CF0895CF930E94AD25C82FD2
:100E80008091AA018C1769F1C093AA010E94F727EB
:100E90006093AB017093AC018093AD019093AE0170
:100EA00080916E0282FF1BC080FF19C086E993E02B
:100EB00053DD80916E0280FF12C01F92CF9381E9B3
:100EC00093E09F938F93E1DD80916E020F900F90DE
:100ED0000F900F9080FF03C08FE893E03DDD8C2FD3
:100EE000BDDFCF910895ADE0B0E0E9E7F7E00C9405
:100EF000B42F49875A876B877C878D878C859D8522
:100F0000892B21F0CA0189238F3F71F58B858111CF
:100F10000E94BE101D821E821F82188685E0FE017F
:100F20003996DE01119601900D928A95E1F78C8138
:100F30009D81892B71F429813A814B815C816D817E
:100F40007E818F8198850E94E80F2D96E2E00C94B7
:100F5000D02F89819A8189238F3F69F3CE01019631
:100F60007FDE8111E8CFF1CF8091B0019091B10186
:100F700001969093B1018093B001C8CFFC018081AC
:100F8000918116C508950F931F93CF93DF93C82FB8
:100F9000D62F662341F10E941F170C2F10E0C801C5
:100FA000815D9109089710F00E94EA17C15DC33076
:100FB000A8F4015D110981E090E002C0880F991F3B
:100FC0000A95E2F72091990330919A03DD2371F09D
:100FD000822B932B90939A0380939903DF91CF9167
:100FE0001F910F9108950E947117D7CF809590950A
:100FF00082239323EFCFCF93C82F8823C9F0823861
:10100000C9F40E94AD2581FD13C089E30E947610CA
:101010000E94DC102FEF87EE93E02150804090403B
:10102000E1F700C0000089E30E947E100E94DC10FE
:10103000CF9108958338A1F40E94AD2580FDF8CFAB
:1010400083E50E9476100E94DC102FEF81EE94E081
:10105000215080409040E1F700C0000083E5E4CFDC
:101060008438A1F40E94AD2582FDE2CF87E40E947E
:1010700076100E94DC102FEF81EE94E0215080402A
:101080009040E1F700C0000087E4CECF8CEF8C0FDA
:10109000813A90F46C2F80910001909101010E949F
:1010A0007926882329F08C2F0E947E100E94DC1064
:1010B0008C2F0E947610BACF80E28C0F883048F4D3
:1010C000C77081E001C0880FCA95EAF70E94A1109D
:1010D000ADCFEBE5EC0FE33040F4F0E0E45BFE4F26
:1010E000808190E00E941B26A3CFE8E5EC0FEB3156
:1010F00050F4F0E0EE0FFF1FEA5EFE4F8081918119
:101100000E94402695CF83E38C0F833108F090CF67
:1011100061E08C2F38DF8CCF882309F450C08238EF
:1011200069F40E94AD2581FF4AC089E3DFD70E94A0
:10113000DC1089E3E3D70C94DC100895833851F474
:101140000E94AD2580FF3BC083E5D0D70E94DC1014
:1011500083E5F0CF843851F40E94AD2582FF2FC083
:1011600087E4C4D70E94DC1087E4E4CF9CEF980F9B
:10117000913A00F390E2980F983048F4877091E02C
:1011800001C0990F8A95EAF7892FE1D7D4CF9BE563
:10119000980F933028F490E080E00C941B2608957B
:1011A00098E5980F9B3128F490E080E00C9440265D
:1011B000089593E3980F933110F460E0E4CE08951E
:1011C0001F93CF93DF93182FEB0115DF209731F496
:1011D000812FA2DFDF91CF911F9108958FE99FE0CA
:1011E0000197F1F700C000002197F0CF70E060E0B8
:1011F000893311F460E570E0E3CF0895882311F09E
:10120000A0D7DAC70895882311F0A1D7D5C70895CC
:1012100090E080E00E941B2690E080E00E94402643
:10122000ADD7CAD70E9488180C94EA1708956ED7D4
:10123000EFCF089593D7FBCF089592959F70963086
:1012400091F058F4925F9F70923058F4803F19F0FB
:1012500030F4883E30F481E008959A5FF4CF843F03
:10126000D1F380E00895883EB0F3813FD1F7F3CF0A
:10127000FC0183819481892B29F0808191818923CC
:101280008F3F31F480E008950E94F212D6CF089586
:10129000868197810097C1F78081918189D3F6CFAC
:1012A000B0E0A0E0E6E5F9E00C94AD2F7C01EB01A5
:1012B000FC011281058102950F7039D7C82E882351
:1012C000D9F0C12E1123C1F08D2F807F803451F0D1
:1012D00080E28C0F8830F0F0011104C08D2F807EE9
:1012E0008032C1F080919C0382FF14C082E0C1D79C
:1012F0001ED791E0C82EC926BD2EB2942FE0B2228F
:10130000FBE0FB1508F46FC0EB2DF0E0EC59FF4C4F
:101310000C949E2FC12CF0CF2D2F2F70D22E8D2FFD
:10132000807F19F0D29490EFD922112381F0DD2033
:1013300049F080E28C0F883010F0C11105C08D2D6E
:1013400000D73AD78C2F49C08D2D0BD7FACF8C2FD1
:10135000E3DEDD2009F447C080E28C0F883010F016
:10136000C11103C08D2DF3D602C08D2D00D724D717
:101370003AC03D2F3F70D32E8D2F807F803219F0E1
:10138000D29480EFD822CC23E1F0C13009F468C0B8
:10139000112309F470C0002309F467C020E0F701AD
:1013A0004081518162817381848125DCB701C4DB76
:1013B000882341F2F701858180FFC4CF8F70858338
:1013C00054C080919C0382FD30C0112341F0DD2088
:1013D00019F08D2DB6D6F0D680E00DDE04C080E089
:1013E0009BDED110BFCFEB2DE850FF0B349718F4E4
:1013F0000E94AD2533DDCE0120DF81113CC110926A
:10140000B1011092B001CC2059F08DD680FD08C0FA
:10141000F701128282D6DDD1C70165D17ED6E8D12F
:10142000CDB7DEB7E9E00C94C92F112361F00111AB
:1014300004C0A7D68D29E2DED6CF0130D1F7A1D6E0
:101440008D29A5D6D0CF011104C0ADD68D2DDBDE00
:10145000CACF013009F4C7CF8D2DD5DEA4D6C3CFB6
:10146000112329F0063008F0BECF8D2DE4CF0530D2
:1014700008F0B9CFEBCF002349F3C93349F4FFEFAC
:1014800027EE33E0F15020403040E1F700C000008B
:101490008C2F42DEA8CF8D2F86958695837061F0C4
:1014A000813009F0A0CFCE019370111102C080E00D
:1014B00090E00E94402697CFCE019370111102C098
:1014C00080E090E00E941B268ECF612F8C2F5BDD89
:1014D0008ACF8D2F837089F5111185CF2C2F2295FE
:1014E00026952770220F220F4C2F4F7050E0022EAE
:1014F00002C0440F551F0A94E2F790E080E0C4FF59
:1015000009C08FE090E002C0880F991F2A95E2F78A
:10151000809590952D2F269526952370842B952BBD
:10152000223039F040F4213011F02AD15CCF20D1A3
:101530005ACF2ED158CF1AD156CF8695112311F0FC
:101540008D2F8170882309F44ECF2C2F229526955C
:101550002770220F220F4C2F4F7050E0022E02C036
:10156000440F551F0A94E2F790E080E0C4FF09C0E1
:101570008FE090E002C0880F991F2A95E2F78095CE
:1015800090952D2F269526952370842B952B223010
:1015900039F040F4213011F053D125CF49D123CF78
:1015A00057D121CF01D11FCF8D2F8F70D82E11236E
:1015B00019F00FD18C2F3FCF8C2F25DE8D2D18D118
:1015C00012CFC23F39F160F4C03FB9F0C13F81F0A2
:1015D000112309F440C00111B5CE8D2F8F711EC0AB
:1015E000C33FF1F0C43FA1F780919C0382FD20C06E
:1015F0008D2F8F71112319F311C0112339F005308C
:1016000008F0F1CE8D2F8F7104D1EDCE063008F0A9
:10161000EACEF8CF8D2F8F711111D1CFDAD0E3CE72
:10162000112321F08D2F8F71C9D0DDCEC3D0DBCE39
:10163000112349F09D2F9F71D92E892FCAD063E0C5
:101640008D2DFDD5D0CE81E014D6023008F4CBCE5E
:1016500082E00FD6C8CE002359F0C93309F018CF65
:10166000EFEFF7EE23E0E150F0402040E1F70ECF3E
:101670008D2F8F71A4CF112319F00111C0CEC3CECD
:101680000111BDCE20E0F70140815181628173815B
:101690008481B1DAB70167DA882309F4B0CE80918A
:1016A000B0019091B101029709F0A9CE8C2F9EDD77
:1016B000A6CE0F931F93CF93DF93EC018E819F8172
:1016C000009761F08FD78C01CBD04FD0B801CE01FD
:1016D000E7DDDF91CF911F910F91089568817981A6
:1016E0008A816FD1F0CFCF93DF93EC018B819C8106
:1016F000892B29F08881998189238F3F41F4DF91DB
:10170000CF910895CE01D5DFCE01B5DAF8CFCE0165
:10171000D1DA8111F7CF0BD5882389F38A81882309
:1017200071F380919C0382FFEACF82E0A2D5E7CFDC
:10173000A5E0B0E0EEE9FBE00C94B42F2596E2E0E2
:101740000C94D02FA8E0B0E0E8EAFBE00C94B42FB2
:101750002896E2E00C94D02F0895FECF0895FDDF87
:101760009093CD018093CC0108950895F8CF08950A
:101770002091CC013091CD01822B932BF0CF089595
:101780002091CC013091CD0182239323E8CF08959D
:101790002091CC013091CD0182279327E0CF08958D
:1017A000DBCF0895FDCF0895FDDF9093CB018093AB
:1017B000CA01089590E080E0F7CF089521E030E07D
:1017C000A90102C0440F551F8A95E2F7CA01ECCF68
:1017D000089521E030E002C0220F331F8A95E2F71E
:1017E0008091CA019091CB01822B932BDDCF08957C
:1017F00021E030E002C0220F331F8A95E2F72095E6
:1018000030958091CA019091CB0182239323CCCF54
:10181000089521E030E002C0220F331F8A95E2F7DD
:101820008091CA019091CB0182279327BDCF089563
:101830002091CA013091CB01822B932BB5CF089513
:101840002091CA013091CB0182239323ADCF08951B
:101850002091CA013091CB0182279327A5CF08950B
:101860000895262F277091E001C0990F2A95EAF775
:1018700023E0769567952A95E1F7660F771F660F47
:10188000771FFA01E60FF71F50E040E0682F70E085
:101890008191DF0111979B01042E02C03695279597
:1018A0000A94E2F7217021952827292328272C93D1
:1018B0004F5F5F4F4430510559F70895A82FA77027
:1018C00023E0969587952A95E1F7880F991F880F51
:1018D000991FFB01E80FF91F50E040E080E02191E3
:1018E00030E00A2E02C0369527950A94E2F721705F
:1018F0003327042E01C0220F0A94EAF7822B4F5F90
:101900005F4F4430510559F70895262F943068F4FD
:101910008C3058F4682F70E08CE0989F600D711D3A
:10192000112442EB51E0822F9CCF0895292F94304F
:1019300060F48C3050F490E062EB71E03CE0239F67
:10194000800D911D1124BACF089580E00895B0E074
:10195000A0E0EDEAFCE00C94AD2F7C010091CA01FF
:101960001091CB018091CC019091CD01082B192BC6
:10197000CFE0D0E0CC24C394D12CBC2EC6010C2ED9
:1019800002C0880F991F0A94E2F780239123892BC4
:1019900049F4219790F7B12C8B2DCDB7DEB7E9E054
:1019A0000C94C92FB7018C2F3FD7019791F3F4CF37
:1019B000CF93DF93EC01CBDFBE0136D7DF91CF9120
:1019C00008951F93CF93DF93EB019091AF0199237B
:1019D00031F0CB01EDDFDF91CF911F910895882386
:1019E00051F0CB01B4DF182F682FCE018EDFBE017E
:1019F000812F1AD7F0CFCB0199DF182FF8CFCF93D3
:101A0000DF93C091CE018091CF018C1303C0DF9191
:101A1000CF910895D0E0FE0183E0EE0FFF1F8A957D
:101A2000E1F7E053FE4F208131814281538164818F
:101A300075818681978186DE2196C770E4CF2091DB
:101A400010023091110240911202509113026091E4
:101A5000140270911502809116029091170272CEB5
:101A600008952091CE019091CF01291302C080E00A
:101A7000089530E0F90153E0EE0FFF1F5A95E1F7AA
:101A8000E053FE4F5181561306C05081581303C0D6
:101A90005281541304C02F5F3F4F2770E6CF81E07F
:101AA0000895452B41F0682381E06F3F09F080E005
:101AB00080958170089581E0FBCFEF92FF920F93A4
:101AC0001F93CF93DF9380911502807F31F4809133
:101AD0001202C091CE01811107C0CDB7DEB7E6E09A
:101AE0000C94CC2F2196C7708091CF018C17A9F34D
:101AF0008091130290911402D0E0009799F3209105
:101B0000100230911102422F43234F3F59F38E01AF
:101B100043E0000F111F4A95E1F7F801E053FE4F33
:101B200041814313DFCF30813213DCCF2281211179
:101B3000D9CFE380F480E81AF90A60E080E192E00E
:101B400082D860E172E016D8E816F90658F680915E
:101B500015028F70806180931502F801EB52FE4FE1
:101B600080818F708061808380E192E0BCDD47DFFF
:101B7000B4CFA5E1B0E0EFEBFDE00C94A42F8C0115
:101B800085E0F801DE01519601900D928A95E1F70A
:101B9000D8016C9011967C9011971296EC90129748
:101BA0001396CD90DC9060E080E192E04CD84C013F
:101BB00080E1282E82E0382EA0901302B09014020B
:101BC000A50160911102809110026BDF582E8823CD
:101BD00009F4E7C1F0901202F601EA19FB095F016E
:101BE00060E0FF2009F46FC1C1012DD8B1010E944E
:101BF000BA0540901502A816B90608F003C1409135
:101C0000130250911402B0901002A0901102842D82
:101C1000807F6A2D09F09FC08B2D43DFFE2C882327
:101C200031F1D80111968C9111978A1120C08C91B5
:101C30008B111DC0209116023091170216968D91BE
:101C40009C912817390799F4E11011C0842D8F70E9
:101C5000806180931502F3DEC10145DD809115029C
:101C6000F80185838F2D6596E2E10C94C02FA601C3
:101C7000672D862D16DFF82E81E08E25F11001C02C
:101C800080E080FF19C04E2D672D862DEADE882367
:101C900099F060E172E0C4010E948905882361F037
:101CA00080E192E020DD88E0E0E1F2E0DF011D92DA
:101CB0008A95E9F7C4DE40C081E08E25F11001C0AD
:101CC00080E0B82FB170DB2E80FF34C04E2D672D21
:101CD000862DC7DEF82E81112DC0698A7A8A8989FE
:101CE0009A8966DE292F22952F70243050F49F7038
:101CF000223078F0992391F0F8019581907F71F46A
:101D0000B1CF2A5F2F70223070F0C801ECDCFD2CBF
:101D1000A9CF992319F0882309F4A4CF805E8830D5
:101D200008F4A0CFF2CF803F08F49CCF815F8330CE
:101D300060F798CFE11002C0F12C94CF809115028A
:101D400081608093150260E172E0C4010E949C05ED
:101D5000882391F3A5CF8B2DA4DEF82E882321F1C3
:101D6000D80111968C9111978A111EC08C918B11FC
:101D70001BC0209116023091170216968D919C91EE
:101D800017972817390781F4E1100EC015964C9269
:101D9000C801A9DC88E0F801A0E1B2E001900D9251
:101DA0008A95E1F74CDE5ECFC80162DA882329F11B
:101DB000EE2019F180911502803298F020911002E6
:101DC000309111023A8729871B86DD86CC868E8763
:101DD0008091160290911702988B8F87CE010996F9
:101DE00082DC88E0F801A0E1B2E001900D928A95D2
:101DF000E1F763DE24DEF52C35CFC80174DCFF2467
:101E0000F39430CF842D807F81F47C2DDD8ACC8AC1
:101E1000A3016E2D8D898CDC80E192E064DC88E08A
:101E2000F10111928A95E9F745CFB0901002A09088
:101E3000110240911302509114026A2D8B2D31DE54
:101E4000F82E882301F1D80111968C9111978A11EF
:101E50001AC08C918B1117C0209116023091170275
:101E600016968D919C9117972817390761F4E11008
:101E70000AC015964C92C80136DC88E0F101119237
:101E80008A95E9F7EFCEC801F3D9882309F4B5CFD5
:101E9000EE2009F4B2CF80911502803208F4A1CF70
:101EA00020911002309111023A8329831B82DD8236
:101EB000CC828E83809116029091170298878F832F
:101EC000CE0101968DCF80E192E00E94230660E171
:101ED00072E00E94BA05A816B90608F055C0EE20B7
:101EE00009F48BCF9090100280901102A090130201
:101EF000B0901402A501682D892DD3DDF82E88231A
:101F0000B1F1D80111968C911197881130C08C9144
:101F100089112DC0209116023091170216968D91CD
:101F20009C912817390719F5CA18DB08B8ECCB16AD
:101F3000D104A0F49091150290FD10C0907F71F033
:101F400080911502F8018583903F09F421CF982FE5
:101F5000907F905F8F70892B85831ACF88E0F8017E
:101F6000A0E1B2E001900D928A95E1F77BCEC80125
:101F70007FD9811136CF809115028160809315023F
:101F8000C801B1DBFE2C6ECE7C2DDD8ACC8AA3018C
:101F90006E2D8D89CDDB88E0D1011D928A95E9F700
:101FA00001CFEE2009F429CFC80162D9F82E882389
:101FB00009F423CF88E0F801A0E1B2E001900D928E
:101FC0008A95E1F780E192E00E94BE0776DDEACED5
:101FD000A0E1B0E0EEEEFFE00C94B42F29873A8741
:101FE0004B875C876D877E878F87988BCE0109969C
:101FF000C0DD8823D1F04C855D856A85898551DDFA
:10200000882349F029853A854B855C856D857E85D9
:102010008F85988997DB8091CE019091CF018913AC
:1020200041C06096E2E00C94D02F88E0FE01399622
:10203000DE01119601900D928A95E1F78C859D85C0
:10204000892B49F389859A8589238F3F21F3A091B4
:10205000CF01B0E0CD010196877099272091CE0184
:102060002817190669F4E6D81092CF011092CE0114
:1020700088E0E0E1F2E0DF011D928A95E9F7CBCF3D
:1020800093E0AA0FBB1F9A95E1F7A053BE4F98E0CB
:10209000FE01319601900D929A95E1F78093CF0160
:1020A000AEDCB9CFB8E08B9FC001112480539E4FA6
:1020B00060DD882309F4B5CFE091CE0128E0E29FEE
:1020C000F0011124E053FE4F208131814281538180
:1020D000648175818681978135DB8091CE0190E0A6
:1020E0000196877099278093CE0195CF682F8091B4
:1020F0000001909101010C941B270895682F809195
:102100000001909101010C9427270895809100010E
:10211000909101010C9433270895809138028595A0
:1021200085958595089580913802877008959091DE
:102130003802977081E009F480E0089580915B0295
:10214000089590915B02892B80935B02089580959E
:1021500090915B02982390935B02089510925B022A
:10216000089590915A02892B80935A020895809580
:1021700090915A02982390935A02089510925A020D
:1021800008958091390208950895FECF08959091A1
:102190009C0392FF07C090913902981719F0809321
:1021A0003902F3CF089580913902882321F01092EB
:1021B000390280E0EACF0895CF93DF93E0910001E8
:1021C000F091010180915B028083E0910001F09128
:1021D0000101808190915A02892B8083909139026C
:1021E000992379F0E0910001F09101018081892B20
:1021F000808380910001909101010E9465268111E8
:10220000D2DFC0910001D091010140E250E068E1CD
:1022100072E0CE010E941130892B59F080E2FE015C
:10222000A8E1B2E001900D928A95E1F7CE010E94FB
:10223000BA25DF91CF9108950895FECF089590912A
:102240009C0392FF0FC098E0899F90011124622B9C
:1022500060933802BEDA8091380285958595859520
:10226000ECCF0895B6CA08951092380280E0E5CF09
:102270000895909138028095892380933802282F01
:10228000277081F4282F082E000C330B92171306A9
:1022900049F090919C0392FF05C0859585958595A1
:1022A000A7DAE2CF0895CF93C82F80919C0382FBD9
:1022B000992790F99C17D9F0C0FB82F980939C0371
:1022C00080919B0390919C0344D082E0D2DF809167
:1022D0006E0280FF0CC01F92CF9381EA93E09F9320
:1022E0008F930E9445050F900F900F900F90CF9104
:1022F000089580919C0382FB882780F991E08927CB
:10230000D2CF089581E0CFCF089580E0CCCF08955B
:102310006FEF7FEF90E080E00C944E30089590E0F6
:1023200080E00E942F3021E0873E9E4F09F020E0A0
:10233000822F089582E090E00C942730089583E086
:1023400090E00C942730089584E090E00C942F30B6
:102350000895BC0184E090E00C944E300895AB01E8
:10236000BC018FE090E00C9446300895AB01BC01B5
:1023700083E190E00C944630089560E070E0CB017A
:10238000F5CF089560E070E0CB01E9DFF6CF089566
:1023900067EE7EEF90E080E00E944E3060E082E0E9
:1023A00090E00E94343060E083E090E00E9434309E
:1023B0001092CD011092CC0160E074E184E090E0D5
:1023C0000E944E3060E086E090E00E9434306FEF73
:1023D00087E090E00E94343040E050E0BA0188E0AD
:1023E00090E00E94463060E08DE090E00E94343042
:1023F00040E050E0BA0188E190E00E94463060E0A1
:1024000087E190E00E94343040E050E0BA018CE176
:1024100090E00E94463070E060E080E290E00E9430
:102420004E3040E050E0BA0188E190E00E94463032
:10243000A9CF0895ADCF0895682F8EE090E00C9459
:1024400034300895A5E0B0E0E8E2F2E10C94B22F58
:102450000E94EB278C0180915C0290915D028017B5
:102460009107A1F08FEF89838A831B820E94EB275B
:102470008160782F9D838C8349815A816B818D8106
:102480000E94730710935D0200935C022596E4E0BE
:102490000C94CE2F0E94F72760936A0270936B0210
:1024A00080936C0290936D02609366027093670252
:1024B0008093680290936902089508950895FECF6D
:1024C00008950895FECF089581E008958DEF99E273
:1024D0000E94A325F2DFF3CF0895F6CF0895FDCF34
:1024E000089508950895FDDFFDCF089586D20C94D8
:1024F0002D0708950E94E2278BD3F8DF0E947F1CEE
:10250000E1CF0895A5E0B0E0E8E8F2E10C94A92F4E
:10251000DBDF81110CC096DF0E94E71F1BD60E94F3
:10252000421B0E943C072596EDE00C94C52F83D3F7
:102530002EE5822E22E0922E640110E0F601E19059
:10254000F1906F01812F77D21F5F143009F445C0DD
:10255000E816F90699F380916E0281FD75D2BFDF0E
:10256000782E10E0812F67D27C01F401A190B19008
:102570004F018A159B0561F1A826BF2400E0CC24F9
:10258000C394D12CC5018C219D21892BC1F07720CA
:10259000B1F009831A8321E0C7018C219D21892B89
:1025A00009F420E02B830E94EB278160782F9D8324
:1025B0008C8349815A816B818D810E9473070F5FE3
:1025C000CC0CDD1C0C30F1F6F4013297F182E08284
:1025D0001F5F143039F65EDF9FCFE816F90609F069
:1025E000BACF99CF1F93CF93DF9321D1EC01C115BF
:1025F00080E5D807F0F5C11580E4D80708F09AC047
:10260000C03ED10520F5CD3CD10508F082C0C83AC6
:10261000D10578F4C53AD10508F073C0C130D105B1
:1026200019F1209709F1C430D105F0F4D0E0C0E0F1
:102630001BC0C33CD105D0F7C85AD0E0CC0FDD1F7A
:10264000C15BDE4F0990D881C02DD4640DC0C11587
:1026500080E2D80708F0CCC0C11581E0D80708F0A7
:102660005AC0C83ED10510F7CE01DF91CF911F911E
:102670000895C03682E5D80718F5C03482E5D8073A
:1026800008F068C0C03282E5D80708F05CC0C11508
:1026900082E5D80708F493C02C2F2695269580E272
:1026A000289F900111248C2F8370C1E0D0E002C0DC
:1026B000CC0FDD1F8A95E2F7C22BD32BDD68D4CF78
:1026C000C03A82E5D80760F4C03882E5D80708F43C
:1026D00056C0CF71D0E0DC2FCC27C46FD06AC4CFF6
:1026E000C03C82E5D80708F45FC0C03E82E5D80749
:1026F00008F09CCFDC2FCC27CC27DF71C06FD06ACD
:10270000B3CFC55AD0E0CB57DE4FC881D0E0D064FC
:10271000ABCFD065A9CF8D2F2CD1182FCE01992703
:1027200086D0C12FD0E0DC2FCC27CC27DF71C82B7F
:10273000D92B9ACFCE0199277AD0CC27DF70C82B1E
:10274000D92BD06A91CFCF71D0E0DC2FCC27C16FCD
:10275000D06A8ACF2C2F26952695277080E2289F55
:10276000900111248C2F8370C1E0D0E002C0CC0F07
:10277000DD1F8A95E2F7C22BD32BDC6875CF2C2F97
:1027800026952695277080E2289F900111248C2F92
:102790008370C1E0D0E002C0CC0FDD1F8A95E2F764
:1027A000C22BD32BDA6860CF8C2F8F71E2D0C82F69
:1027B000D0E0DC2FCC27CC27DF71D06255CF8C2F17
:1027C0008F71D7D055E0D695C7955A95E1F7CF7060
:1027D000D0E0DC2FCC27282F30E084FF05C044E078
:1027E000220F331F4A95E1F7C22BD32BD0693CCF80
:1027F0008D2F8F71BED0182FCE01992718D0C12FE1
:10280000D0E0DC2FCC27CC27DF71C82BD92BD5CF3C
:10281000462F743030F46C3020F4672F0C94F2059E
:10282000089590E080E00895F3DFDCCE08958238CB
:102830009105B9F1B0F48133910509F47DC048F4F4
:102840008932910509F46DC08A32910509F47BC083
:1028500008958533910509F45FC08933910509F125
:102860000895833E9105D9F138F4803E910529F110
:10287000823E910579F10895863E9105D9F1873E12
:10288000910509F43EC0843E910541F520919C03D9
:1028900021FF24C080919B0384FD19C087EE90E046
:1028A000089520919B03237009F05AC020919C0346
:1028B00023FF14C089E290E0089520919B0320FD3E
:1028C00038C030919C0330FF09C024FF43C090E022
:1028D00080E0089520919B0322FDF7CF0895209179
:1028E0009B0322FD3AC030919C0330FD39C024FF88
:1028F000F5CFEDCF20919B0323FFF0CF24FDE7CF51
:10290000CDCF20919B0323FD2EC030919C0331FF3E
:10291000EECF84EE90E0089520919B0325FFDECF5B
:10292000C9CF20919B0325FD21C020919C0323FF4B
:10293000D5CF89E390E0D2CF20919B0326FFCECF65
:102940008AE290E0089520919B0326FFC7CF81E3A0
:1029500090E0089583EE90E0089582EE90E008956F
:1029600080EE90E0089586EE90E0089585E390E093
:10297000089590919B0392FF06C0282F287128305C
:10298000F9F4877F846093FF06C0282F28712831CF
:10299000F1F4877E846120919C0320FF06C0382FCC
:1029A00038713830D9F4877F816021FF06C0282F25
:1029B00028712831D1F4877E816194FD877E089546
:1029C000282F24712430F9F68B7F8860DCCF282FE4
:1029D0002471243101F78B7E8861DDCF382F31716E
:1029E000313019F78E7F8860E0CF282F2171213197
:1029F00021F78E7E8861E1CF089591DC811101C0BD
:102A000019DD98DC80936E029FDC90939C03809389
:102A10009B03F2DF94DC90E00E94B60B8091CA0128
:102A20009091CB010C94D20B08950895FECF089598
:102A30000895FECF0895E82FF0E0EE0FFF1FEB554D
:102A4000FC4F808191810895B0E0A0E0EAE2F5E1D9
:102A50000C94AE2F86EC93E00E94AC0485EAE82E3D
:102A600083E0F82ED0E0C0E091ECC92E93E0D92E9F
:102A700008EB13E0DF93CF93DF92CF920E944505DE
:102A80008EEB93E00E94AC04F701819191917F015C
:102A90000E9411079F938F931F930F930E944505E8
:102AA00086EB93E00E94AC0421968DB79EB7089602
:102AB0000FB6F8949EBF0FBE8DBFC430D105D1F6BE
:102AC000CDB7DEB7E8E00C94CA2F80EA8A95F1F71B
:102AD000089500C00895F9CF0895F894E82FE2957D
:102AE000EF70F0E031A1282F2F7081E090E001C05D
:102AF000880F2A95EAF7982F9095932391A392A196
:102B0000892B82A378940895CF93DF9387E3E5DF41
:102B100086EFE3DF86E3E1DF86E6DFDFC8E8D1E0CA
:102B200089918F3F09F0D9DF81E0C439D807C1F717
:102B3000DF91CF910895AF92BF92DF92EF92FF9213
:102B40000F931F93CF93DF938C01D62EC62FD0E027
:102B5000CE018C569E4F7C01FC0120812F3F09F451
:102B60004AC0F894E22FE295EF70F0E031A12F70A7
:102B700081E090E001C0880F2A95EAF7932F982B07
:102B800091A392A18095892382A37894A2DFE8E89B
:102B9000F1E044E951E021E030E0B12CA12C619159
:102BA0006F3F99F1A62FA295AF70B0E090968C91EF
:102BB00090E06F7002C0959587956A95E2F780FD69
:102BC00024C0C901A82AB92A220F331F4E175F0754
:102BD00031F7F70180818F3F09F07FDF61E0A114B9
:102BE000B10409F460E08D2D76DFCC0FDD1FC00F3E
:102BF000D11FB982A882DF91CF911F910F91FF90D1
:102C0000EF90DF90BF90AF90089590E080E0DACF32
:102C10007BDF88E0E5EAF3E0DF01982F1D929A95CB
:102C2000E9F7EDE9F3E0DF011D928A95E9F784E029
:102C30003AD0FCCE0895A8E0B0E0E1E2F6E10C94D1
:102C4000B12F8E010F5F1F4F88E0F80111928A9516
:102C5000E9F7F12C6F2DC8016EDFF394F4E0FF1259
:102C6000F9CF48E050E0B8018DE993E00E941130BF
:102C700021E0009709F420E0892B41F088E0F80179
:102C8000ADE9B3E001900D928A95E1F744E065EA81
:102C900073E08DE993E008D0182FCBDE812F2896C2
:102CA000E5E00C94CD2F0895CF92DF92EF92FF9242
:102CB0001F93CF93DF936C017B01C42F222349F034
:102CC00081E0809371020E94EB27909370028093C1
:102CD0006F021091710211110AC010E0812FDF9173
:102CE000CF911F91FF90EF90DF90CF90089580914A
:102CF0006F02909170020E940328059770F3D0E054
:102D0000CC0FDD1FAE01B601C7010E941130892B27
:102D100041F0AE01B601C7010E941E30109271024F
:102D2000DDCF10E0FBCF0E94782AE4DB0C94822AEE
:102D300008950E94862AE6DB0C94A02A08950E943A
:102D400084270E945F2AC2DBEEDFF3DFCCDBFDCFFE
:102D50008091780280FF0DC06091070170E0660FDE
:102D6000771F6038710570F56115710569F1862F5F
:102D7000089581FF07C06091070184E0689FB0015A
:102D80001124EFCF6091070182FD0AC08091770284
:102D90008823A9F02091060160910701821710F0A5
:102DA00088E0ECCF869FC001112433E0880F991F83
:102DB0003A95E1F7622F70E00E948B2FD2CF68E046
:102DC00070E0D5CF8FE7089581E008958091780273
:102DD00080FF0CC06091030170E075956795759553
:102DE00067956115710549F1862F089581FF06C029
:102DF0006091030170E075956795F3CF60910301D1
:102E000082FD0BC0909176029923A1F0609102019E
:102E100080910301961738F0682F70E060387105D3
:102E200000F38FE70895899FC001112470E00E948C
:102E30008B2FF4CF61E070E0D7CF81E008958D3C17
:102E400029F486DF819580937C0208958E3C11F4ED
:102E50007FDFF9CF8F3C29F47BDF819580937B0264
:102E60000895803D11F474DFF9CF893D21F4AEDF80
:102E700080937D0208958A3D19F4A8DF8195F8CFEB
:102E80008B3D29F4A3DF819580937E0208958C3DCC
:102E900011F49CDFF9CF9FE2980F983070F4815DB8
:102EA000990B21E030E001C0220F8A95EAF780916A
:102EB0007A02822B80937A0208958D3D31F48091BD
:102EC000780281608093780208958E3D21F480918C
:102ED00078028260F7CF8F3DB9F7809178028460E5
:102EE000F1CF40917B028D3C59F480917C0287FFA9
:102EF0000DC010927C0241110BC01092770208C0E5
:102F00008E3C81F480917C0218169CF3442381F05E
:102F100080917D0290917E02892B09F05AC0109217
:102F2000760208958F3C49F447FFF0CF10927B0260
:102F300080917C028111ECCFE0CF803D19F4141612
:102F4000ACF3E4CF90917D02893D29F41916F4F693
:102F500010927D02DBCF8A3D19F497FFD7CFF8CFCF
:102F600090917E028B3D29F497FFD0CF10927E0284
:102F7000CDCF8C3D19F41916CCF3C8CF9FE2980F32
:102F8000983090F4815D990B21E030E0B90102C0E6
:102F9000660F771F8A95E2F7CB01809590917A02B0
:102FA000892380937A02B2CF8D3D31F480917802EB
:102FB0008E7F80937802AACF8E3D21F48091780293
:102FC0008D7FF7CF8F3D09F0A1CF809178028B7F65
:102FD000F0CF089580916E0283FF7EC084E094E07C
:102FE0000E94AC0480917A021F928F938FEF93E03E
:102FF0009F938F930E9445058DEF93E00E94AC0450
:1030000080917B02282F082E000C330B3F938F9367
:103010008AEF93E09F938F930E94450588EF93E09A
:103020000E94AC0480917C02282F082E000C330BE8
:103030003F938F9385EF93E09F938F930E94450575
:1030400083EF93E00E94AC0480917D02282F082E2C
:10305000000C330B3F938F9380EF93E09F938F93FC
:103060000E9445058EEE93E00E94AC0480917E02A2
:10307000282F082E000C330B3F938F938BEE93E099
:103080009F938F930E94450588EE93E00E94AC04C5
:10309000809177021F928F9385EE93E09F938F9399
:1030A0000E94450583EE93E00E94AC048091780273
:1030B0001F928F9380EE93E09F938F930E9445051C
:1030C0008DED93E00E94AC048DB79EB74C960FB681
:1030D000F8949EBF0FBE8DBF0E94EB279C0190917C
:1030E0007B0280917C02982B21F030937502209313
:1030F000740290917D0280917E02982B21F0309392
:1031000073022093720289E792E00C940D260895D1
:1031100086E0E9E7F2E0DF011D928A95E9F7109277
:10312000770210927602109278020895FC01828153
:1031300081110EC0838181110BC08481811108C06F
:1031400091E08581811101C090E0892F81700895FF
:1031500081E0FCCFA6E0B0E0E0EBF8E10C94B32F07
:1031600086E0E9E7F2E0DE01119601900D928A9582
:10317000E1F710927B0210927C0210927D02109275
:103180007E028B819C81892B89F0809174029091C1
:1031900075020E940328AC01909177029923B9F13E
:1031A000809108018417150608F43EC08D819E8128
:1031B000892B91F080917202909173020E940328F2
:1031C000AC0190917602992309F46DC080910401BD
:1031D0008417150608F475C0BE016F5F7F4F89E73D
:1031E00092E00E944527811104C089E792E09EDFAA
:1031F0008111F0DE86E0FE013196A9E7B2E0019090
:103200000D928A95E1F72696E3E00C94CF2F20915A
:1032100009018AE0289F900111242417350730F610
:103220009F5F9093770202C09F3FD1F71B811123CC
:1032300051F08EDD9FEF11160CF491E0899F802DE7
:10324000112480937B021C81112351F081DD9FEFBB
:1032500011160CF491E0899F802D112480937C023B
:1032600030917B02332309F4A1CF20917C022223E9
:1032700009F49CCF45EB3403C0011124992359F084
:1032800090937B0245EB240390011124332339F002
:1032900030937C028BCF81E080937B02F3CF81E07F
:1032A00080937C0283CF209105018AE0289F9001C2
:1032B00011242417350708F08FCF9F5F9093760273
:1032C00002C09F3FD1F71D81112351F07FDD9FEF99
:1032D00011160CF491E0899F802D112480937D02BA
:1032E0001E81112351F072DD9FEF11160CF491E055
:1032F000899F802D112480937E0230917D0233239B
:1033000009F46ACF20917E02222309F465CF45EBB0
:103310003403C0011124992359F090937D0245EBA9
:10332000240390011124332339F030937E0254CFCB
:1033300081E080937D02F3CF81E080937E024CCFC9
:10334000CF93DF93EC01FB018281882309F4D2C083
:103350009E0130572332310508F0B2C00E94A411FB
:1033600090939C0380939B03FE01E150F047E2326F
:10337000F10520F4E059FF4C0C949E2F80919B03A3
:10338000816080939B0393C080919C0388608093AD
:103390009C038DC080919B038260F3CF80919B033F
:1033A0008460EFCF80919B038860EBCF80919C037A
:1033B0008160EDCF80919C038260E9CF80919B0377
:1033C0008061DFCF80919B038062DBCF80919B0384
:1033D0008064D7CF0E941A0980919B038068D1CF67
:1033E00080919B038C60CDCF80919C038360CFCF75
:1033F00080919B038E7FC5CF80919C03877FC7CF31
:1034000080919B038D7FBDCF80919B038B7FB9CF34
:1034100080919B03877FB5CF80919C038E7FB7CF30
:1034200080919C038D7FB3CF80919B038F7EA9CF2A
:1034300080919B038F7DA5CF80919B038F7BA1CF34
:103440000E941A0980919B038F779BCF80919B03E9
:10345000837F97CF80919C038C7F99CF80919B0332
:1034600082FB992790F921E0922790FB82F990FB4B
:1034700083F987CF80919C03982F909591708E7FD0
:10348000892B90FB81F983CF90919B03892F8F7BB0
:1034900096FF806476CF0E941A0990919B03892F32
:1034A00097FB87F980586DCF81E00E941C128091B4
:1034B0009B0390919C030E94A9110E941A0980E02D
:1034C000DF91CF91089580E0F0CF90919B03892FF9
:1034D0008F7E94FF806155CF90919B03892F8E7FC3
:1034E00090FF81604ECF90919C03892F877F93FF3F
:1034F00088604DCF81E0E4CFB0E0A0E0E2E8FAE1FF
:103500000C94AF2FE82FF0E0E95DFB4FD490282F0B
:1035100026952695269530E0F901E953FB4F049155
:10352000877010E0082E02C0159507950A94E2F7FF
:1035300001701127F901E954FB4FE490F12C082E9A
:1035400002C0F594E7940A94E2F791E0E922FF249F
:10355000F901E955FB4FC491D0E002C0D595C7955C
:103560008A95E2F7C170DD270115110519F081EE8A
:103570000E94FB07E114F10419F086EE0E94FB079C
:103580008D2D0E94F608E114F10419F086EE0E94D8
:103590008C080115110519F081EE0E948C08CD2BC5
:1035A00019F08CE20E94F608CDB7DEB7E7E00C9484
:1035B000CB2FEF92FF920F931F93CF93DF938C014A
:1035C000F62E8AE0E82EF8018491882309F453C08E
:1035D000813009F04DC0E8012196FE0184918130CF
:1035E00091F42196FE0184910E94F6088E010F5FEE
:1035F0001F4F8F2D815038F3EFE9FFE03197F1F73E
:1036000000C00000F7CF823039F4E8012296FE01B5
:1036100084910E94FB07EACF833039F4E8012296B7
:10362000FE0184910E948C08E1CF8430F9F6E80114
:103630002296FE01249190E080E0FE013196205315
:10364000330B2A30310548F0019780F2EFE9FFE0B3
:103650003197F1F700C00000F7CFE89EA001E99E86
:10366000500D1124C901840F951F2491EF01E5CF5E
:1036700043DFE801BBCFCDB7DEB7E6E00C94CC2F3B
:10368000089508956BD2882309F484C073D280937F
:10369000840270D2809385026DD2809386029091CD
:1036A000840280919903982B209185028091860253
:1036B0003091820239273770422F482B5091870270
:1036C000452B342B09F45BC090938202392F307460
:1036D00094FF69C0311103C0203809F027FF21E8A9
:1036E0002093850295FF65C097FD03C0803809F0DF
:1036F00087FF81E8292F277020938402819580938A
:1037000086028091810292FF5AC0811109C00E94F5
:10371000EB279093800280937F0281E08093810267
:103720009091850280918602292F282B99F022E022
:103730002093810287FD8F5F859581958093870215
:10374000892F97FD8F5F859580938802109285025F
:1037500010928602809184028B7F809384028091F4
:10376000850290918602892B90918702892B19F00E
:1037700083E892E086DF83E892E00E940D261092B3
:10378000850210928602109287021092880210928F
:103790008402089580916E0283FF81CF84EA95E0D0
:1037A0000E94AC047CCF311102C027FF99CF2FE7D4
:1037B00097CF97FD02C087FF9DCF8FE79BCF8130CA
:1037C00001F580917F02909180020E9403288C3243
:1037D0009140B8F48091840284608093840283E8ED
:1037E00092E00E940D268FEF91EE24E081509040F0
:1037F0002040E1F700C00000809184028B7F80931D
:10380000840210928102A6CFCF9385EFC4D1C82F36
:1038100080916E0283FF1BC083E895E00E94AC0498
:103820008091AC021F928F931F92CF931F9285EFCE
:103830008F938DE595E09F938F930E9445058DB7FB
:103840009EB708960FB6F8949EBF0FBE8DBFCF915E
:103850000895CF9384EF9FD1C82F80916E0283FF8C
:103860001BC08DE395E00E94AC048091AC021F92D6
:103870008F931F92CF931F9284EF8F9387E195E0F0
:103880009F938F930E9445058DB79EB708960FB6FC
:10389000F8949EBF0FBE8DBFCF910895CF938091B6
:1038A0008902811101C0B0DF8AEE75D1C82F8091E5
:1038B0006E0283FF1BC08DEF94E00E94AC048091E8
:1038C000AC021F928F931F92CF931F928AEE8F9319
:1038D00087ED94E09F938F930E9445058DB79EB727
:1038E00008960FB6F8949EBF0FBE8DBF80918902D7
:1038F000811101C0AEDF10928902CF910895CF935C
:10390000C6D02FEF83ED90E3215080409040E1F747
:1039100000C000008FEF3FD1C82F80916E0283FF5F
:103920001BC085E596E00E94AC048091AC021F921A
:103930008F931F92CF931F928FEF8F938FE296E01A
:103940009F938F930E9445058DB79EB708960FB63B
:10395000F8949EBF0FBE8DBF0DD1C82F80916E020F
:1039600083FF16C086E196E00E94AC048091AC0211
:103970001F928F931F92CF938DEF95E09F938F931C
:103980000E9445050F900F900F900F900F900F9091
:10399000F1D0C82F80916E0283FF16C082EE95E0B1
:1039A0000E94AC048091AC021F928F931F92CF9320
:1039B00089EC95E09F938F930E9445050F900F909F
:1039C0000F900F900F900F9044DF68DF59DECF917A
:1039D00008955D98559A089555985D9A089555985B
:1039E0005D9A85E08A95F1F7000089B185FB88270B
:1039F00080F908955A98529A089552985A9A0895BB
:103A000052985A9A85E08A95F1F7000089B182FBB5
:103A1000882780F908959FB7F89420918A028091B1
:103A20008B02821769F030E0F901E457FD4F808185
:103A30002F5F3F4F2F71332720938A029FBF089536
:103A400080E0FCCFCF93DF93EC01C9DF882311F036
:103A5000209721F4CE01DF91CF91089585E08A95DA
:103A6000F1F700002197F1CFCF93DF93C2E3D0E0CD
:103A7000B6DF811102C0209721F4CE01DF91CF91F2
:103A8000089585E08A95F1F700002197F1CFA4DF32
:103A9000B4DF5D985A9886E78093CA001092C800F8
:103AA0001092CD001092CC0080E98093C900089557
:103AB0001F920F920FB60F9211242F933F934F93A3
:103AC0005F936F937F938F939F93AF93BF93CF93A6
:103AD000EF93FF938091C8008C714091CE008111CB
:103AE0002CC0CFB7F89480918B0290E09C012F5F9F
:103AF0003F4F2F71332750918A025217C9F08457D4
:103B00009D4FFC01408320938B02CFBFFF91EF912B
:103B1000CF91BF91AF919F918F917F916F915F9165
:103B20004F913F912F910F900FBE0F901F901895BE
:103B300083E796E00E94AC04E8CF1F924F931F9258
:103B40008F938FE796E09F938F930E9445050F9088
:103B50000F900F900F900F900F90D8CF9FB7F894C1
:103B600081E030918B0220918A02321301C080E003
:103B70009FBF0895CF93CAE1C15019F44CDFCF9194
:103B80000895ECDF8111FACF8FE99FE00197F1F7FB
:103B900000C00000F1CFEF92FF920F931F93CF93DD
:103BA000DF93E82E1092AC021092CA008091C900F7
:103BB000877E8093C9000DDF20DF8FE891E00197B9
:103BC000F1F700C0000016DF07DF80E197E23ADF7F
:103BD000892BC9F48AE08093AC02FEDE0EDF5D988B
:103BE0005A9886E78093CA001092C8001092CD00C0
:103BF0001092CC0080E98093C90080E0CDB7DEB799
:103C0000E6E00C94CC2FD0E0C0E011E0F12C01E014
:103C100090E59A95F1F7C7010C2E02C0959587950E
:103C20000A94E2F780FF07C01027E7DE1DDF892B2B
:103C300021F482E0D0CFDEDEF9CF82E390E002DF34
:103C4000892B11F483E0C7CF2196C830D10501F745
:103C500080E58A95F1F7112331F0CFDE05DF892B5E
:103C600021F484E0B8CFC6DEF9CF82E390E0EADE4B
:103C7000892B11F485E0AFCF90E59A95F1F7BDDE81
:103C8000C2E3D0E0BDDE882351F0209711F486E036
:103C9000A2CF25E02A95F1F700002197F3CFCD2B95
:103CA000B1F382E390E0CEDE892B11F487E093CF6D
:103CB000DBDE892B71F488E08ECF85E08A95F1F701
:103CC000000021979DDE811107C02097B1F789E0A0
:103CD00082CFC2E3D0E0F6CFCD2BC9F37DDE8DDEFF
:103CE0005D985A9886E78093CA001092C800109297
:103CF000CD001092CC0080E98093C9003BDF7ECFDD
:103D000008950F931F93CF93DF9380911803E09151
:103D1000AD021CE081111AC0DF91CF911F910F916C
:103D2000089501E00E0F0093AD02CE2FD0E0E19F89
:103D3000F0011124E854FD4F83819481892B29F0EF
:103D40008081918189238F3FF1F4E02F80911803C6
:103D5000E81738F3109218031092AD02DDCF1896D1
:103D60008D919C918F3F9807D9F061E0C9DF1C9F2E
:103D7000F0011D9FF00D1124E854FD4F14821382B1
:103D80000E94BE10E2CF1C9FD0011D9FB00D1124D8
:103D9000A854BD4F16968D919C911797892BF9F2D7
:103DA000208131814281538164817581868197812F
:103DB0000E94E80FDCCF089510921A0310921903A5
:103DC00020910B0130910C01EDE1F3E090E080E0F7
:103DD0002817390709F408954581411102C014825A
:103DE000168201963796F4CFDC016091B60280917D
:103DF000B702962F891301C00895292F30E0F901E9
:103E0000EE0FFF1FE255FD4F408151814A175B07BE
:103E1000A1F487E08A9FA0018B9F500D1124435E7F
:103E20005C4F81E0FA0184839613E6CF2F5F3F4F0A
:103E3000237033272093B60208952F5F3F4F922FB0
:103E40009370D8CFB0E0A0E0E8E2FFE10C94A92F96
:103E5000EB012C81211151C070901803A8EBB2E046
:103E600030E020E0812C61E070E0271508F044C0CC
:103E70001A96CD90DC901B97A880B9804FEF5FEF2A
:103E8000912CE92CF12CF701EE0FFF1FEA0DFB1D21
:103E900005911491C016D10609F4A7010115110569
:103EA00011F09394EECF4F3F540781F1FB0102C014
:103EB000EE0FFF1F4A95E2F78E2AAB01092C02C0D4
:103EC000440F551F0A94E2F7415051098416150614
:103ED000C9F44A815B816CE0629FF001639FF00D41
:103EE0001124E854FD4F578346832EEF208321830E
:103EF0009187808721E02D8377DFCDB7DEB7EDE0B6
:103F00000C94C52F14961C921E9213972F5F3F4F4F
:103F10001C96ABCF1F93CF93DF93C091B60217E0EF
:103F20008091B7028C1306C0ECDE46DFDF91CF91A3
:103F30001F910895D0E0FE01EE0FFF1FE255FD4FE7
:103F400080819181189FB001199F700D1124635ECB
:103F50007C4F78DF2196C370E3CFEF92FF921F93DF
:103F6000CF93DF93FC012081318110E040E050E0ED
:103F7000E52FF0E0EE0FFF1FE20FF31FA591B491C4
:103F80001097B9F0FB01C081D18140E005C0AE15AA
:103F9000BF0509F411E04F5FE42FF0E0EE0FFF1FC3
:103FA000EC0FFD1FE590F490E114F10481F75F5FE1
:103FB000DFCF112349F0451708F4CB01DF91CF91F2
:103FC0001F91FF90EF90089590E080E0F7CF8091EF
:103FD0000A01882329F180911B0390911C0300970B
:103FE000F9F00E9403282091190330911A03281731
:103FF0003907B0F49091B6028091B702981751F04A
:1040000089DF10921A031092190310921C03109268
:104010001B03089576DE10921C0310921B03CCCE76
:10402000089510921C0310921B0310920A018091B4
:10403000B7028093B602C0DE64CE089580910A0173
:10404000882311F0EECF089581E080930A0108954E
:10405000A9E0B0E0EEE2F0E20C94A42F6C017B0149
:1040600080352CE7920761F4FB0112811123D9F00E
:1040700081E080930A01812F2996E2E10C94C02F00
:104080008135FCE79F0731F4FB011281112359F0C0
:10409000C8DFF1CF82359C4731F4FB011281112337
:1040A00011F0CCDFE8CF8091CA019091CB010E9442
:1040B000D506182F80DE181731F0F7016081718165
:1040C0000E9408146C010DE113E0B12CA12C19869B
:1040D00088248394912C80910B0190910C01A81657
:1040E000B906B8F1F7018281882309F44DC1F98539
:1040F000FF2309F449C16FD790931C0380931B03DE
:1041000080911803883008F591E0980F9093180378
:1041100098E0F701DE01119601900D929A95E1F772
:104120002CE0829FC001112488549D4F28E0FE019D
:104130003196DC0101900D922A95E1F72FEF3FEFC8
:10414000FC0131872087D386C28611E0F9851F27BD
:1041500092CFF8016081718166246A94762C20E008
:10416000422F50E0FA01EE0FFF1FE60FF71F859177
:104170009491C816D90609F43A01892B11F02F5FE2
:10418000EFCF312CFFEF6F167F0609F444C0F80122
:10419000448130900A01832D411180E0F82FF170A5
:1041A0003F2EF80155808681F7019281992309F409
:1041B0008CC0332009F489C0511015C0A401062C0D
:1041C00001C0440F0A94EAF7842BF801868380919A
:1041D000190390911A03C29730F462E370E0709370
:1041E0001A0360931903C40102C0880F991F2A950E
:1041F000E2F70197F80126812817190661F48091EA
:104200001B0390911C03009779F0FDD6C39760F0D3
:1042100021E0F8012483F985F329F9872FEFA21A09
:10422000B20A095F1F4F57CF2090B60290E080E09E
:104230002091B702221215C08017910761F3622CFA
:10424000712CF301EE0FFF1FE255FD4FB182A082EA
:104250006FEF661A760A73E0672277246092B702DE
:10426000DACF622C712CF301EE0FFF1FE255FD4FE8
:104270002081318147E0429FC001439F900D11246E
:10428000BC01635E7C4F2B01B801C20166DE009762
:10429000A9F021E0FC0124838017910709F4BBCF2A
:1042A0002091B60222120AC04816590639F4930129
:1042B0002F5F3F4F237033272093B6023FEF631ADF
:1042C000730A462D4370242EB3CF90E051101FC0C7
:1042D000F40102C0EE0FFF1F2A95E2F79F01215063
:1042E00031092817390729F4442309F44BC0C501C3
:1042F0007BDDC401062C01C0880F0A94EAF7982FD1
:104300009095F801868189238683352C84CF9C0182
:10431000062C02C0359527950A94E2F7A901417051
:104320005527BC016150710986239723892B31F5EC
:10433000452B21F1F80182819381892BD9F01B82D1
:104340001C821D821E82FEEFF983FA8344D68160AF
:10435000582F9D838C83F801828193818F83988766
:1043600029813A814B816D817E810E94E80FF8019D
:104370001582BFCF60E0C501C3DCF9CFF22FF17029
:104380005F2EB7CF532CB5CF9091B6028091B70274
:10439000981711F0BFDDD9CEB4DC10921C03109237
:1043A0001B030ADDD2CECF93DF93EB0186319C470E
:1043B00011F50E949E109A81992399F08A7A91E0D2
:1043C00009F490E090934703811109C089E20E94AB
:1043D00076100E94DC1080E0DF91CF91089585E394
:1043E000F6CF80914703811104C089E20E947E10BC
:1043F000F0CF85E3FBCF81E0EFCFB0E0A0E0E3E0DA
:10440000F2E20C94A62FEC01E881F981CF01815AE8
:1044100092454F9720F480EAE82782E5F827DB01F0
:1044200012964C90442009F45AC2EF3FF105A9F0CE
:10443000A0F0E935FC4721F010924803A42D07C0F5
:104440008091480391E0892780934803A0E08A2F58
:10445000CDB7DEB7E0E10C94C22FA0914803AA23A8
:1044600009F4E9C010924803E03CF105F0F5E038AA
:10447000F10508F0AAC0E034F10508F070C021E0B1
:1044800030E040E050E060E070E080E090E00E2F2F
:104490000E94DB2FB09149032B2BB0914A033B2B99
:1044A000B0914B034B2BB0914C035B2BB0914D0360
:1044B0006B2BB0914E037B2BB0914F038B2BB091A4
:1044C00050039B2B2093490330934A0340934B03A3
:1044D00050934C0360934D0370934E0380934F03AE
:1044E00090935003F983E883B2CFEF3FF10509F0D1
:1044F00030F621E030E040E050E060E070E080E045
:1045000090E08F01005C11090E94DB2FB0916103E4
:104510002B2BB09162033B2BB09163034B2BB091DB
:1045200064035B2BB09165036B2BB09166037B2B0F
:10453000B09167038B2BB09168039B2B2093610391
:104540003093620340936303509364036093650365
:10455000709366038093670390936803C3CF21E051
:1045600030E040E050E060E070E080E090E08F01FB
:10457000005411090E94DB2FB09151032B2BB091F5
:1045800052033B2BB09153034B2BB09154035B2B45
:10459000B09155036B2BB09156037B2BB091570311
:1045A0008B2BB09158039B2B2093510330935203D4
:1045B00040935303509354036093550370935603F1
:1045C00080935703909358038DCF21E030E040E073
:1045D00050E060E070E080E090E08F010058110949
:1045E0000E94DB2FB09159032B2BB0915A033B2B28
:1045F000B0915B034B2BB0915C035B2BB0915D03DF
:104600006B2BB0915E037B2BB0915F038B2BB09132
:1046100060039B2B2093590330935A0340935B0311
:1046200050935C0360935D0370935E0380935F031C
:104630009093600357CFE034F10508F067C07090A5
:10464000490380904A0390904B03D0914C03C09152
:104650004D03B0914E0350904F036090500321E002
:1046600030E040E050E060E070E080E090E00E2F4D
:104670000E94DB2F59016A017B018C0127213B2D10
:10468000382149215D2D5D236C237F2D7B238521DE
:10469000912F96210E94F42F09F0D0CEE03CF10535
:1046A00008F08EC0E038F10508F0EBC0E034F10509
:1046B00008F0B9C021E030E040E050E060E070E098
:1046C00080E090E00E2F0E94DB2F209530954095E2
:1046D00050956095709580959095272138214921B6
:1046E0005D236C237B2385219621209349033093FE
:1046F0004A0340934B0350934C0360934D037093D4
:104700004E0380934F0390935003A1CEE038F10500
:10471000E0F4709051038090520390905303D09135
:104720005403C0915503B0915603509057036090C5
:10473000580321E030E040E050E060E070E080E0CD
:1047400090E08F010054110993CFE03CF105E0F4B3
:104750007090590380905A0390905B03D0915C0352
:10476000C0915D03B0915E0350905F036090600361
:1047700021E030E040E050E060E070E080E090E078
:104780008F010058110974CF70906103809062030B
:1047900090906303D0916403C0916503B091660368
:1047A000509067036090680321E030E040E050E003
:1047B00060E070E080E090E08F01005C110958CF6C
:1047C000EF3FF10511F008F075CF8F01005C110982
:1047D00021E030E040E050E060E070E080E090E018
:1047E0000E94DB2F209530954095509560957095EF
:1047F000809590952721382149215D236C237B23C7
:1048000085219621209361033093620340936303D3
:10481000509364036093650370936603809367030A
:104820009093680314CE8F010054110921E030E009
:1048300040E050E060E070E080E090E00E94DB2F1C
:104840002095309540955095609570958095909500
:104850002721382149215D236C237B238521962143
:1048600020935103309352034093530350935403C6
:1048700060935503709356038093570390935803A6
:10488000E6CD8F010058110921E030E040E050E012
:1048900060E070E080E090E00E94DB2F2095309592
:1048A0004095509560957095809590952721382179
:1048B00049215D236C237B23852196212093590375
:1048C00030935A0340935B0350935C0360935D0302
:1048D00070935E0380935F0390936003B8CDA1E073
:1048E000EF3FF10509F098F5E034F10590F580907F
:1048F000490390904A03D0914B03C0914C03B0916F
:104900004D03A0914E0360904F037090500321E03F
:1049100030E040E050E060E070E080E090E00E2F9A
:104920000E94DB2F59016A017B018C0128213B2D5C
:1049300039214D235D2D5C236B237F2D7A23A1E04C
:104940008621912F97210E94F42F09F4A0E0A170F5
:104950007ECDE038F105E0F4809051039090520351
:10496000D0915303C0915403B0915503A0915603C5
:1049700060905703709058038F010054110921E093
:1049800030E040E050E060E070E080E090E0C8CFD0
:10499000E03CF105A0F48090590390905A03D09127
:1049A0005B03C0915C03B0915D03A0915E036090D6
:1049B0005F03709060038F0100581109E0CF809071
:1049C000610390906203D0916303C0916403B0913E
:1049D0006503A091660360906703709068038F0180
:1049E000005C1109CCCFB0E0A0E0E9EFF4E20C9458
:1049F000AC2F7C015B01C42FD22FFC018281882364
:104A0000C1F040936B03E7D290936A0380936903EC
:104A100080E28C0F883040F4C77081E001C0880FBD
:104A2000CA95EAF70E94FE08CDB7DEB7EAE00C941B
:104A3000C82F10916B03141337C0809169039091B4
:104A40006A03E1D26C01B701C5010E94BA05C8161C
:104A5000D90650F5C0E2CD0F1D17C1F080E2810FDD
:104A6000883048F4177081E0012E01C0880F0A9445
:104A7000EAF70E940309C83048F481E09D2F97703F
:104A800001C0880F9A95EAF70E94FE08802F0E94C5
:104A9000F608C83048F6D77081E001C0880FDA9573
:104AA000EAF70E940309C0CF80E28C0F883008F03B
:104AB000BBCFC77081E001C0880FCA95EAF7F1CF7C
:104AC0000F93DB0188519C478730910598F5FC01D5
:104AD000EE56FF4C0C949E2F06E221EE41EE6AE169
:104AE0007CE7CD0180DF80E00F91089507E225EE9D
:104AF00045EE6BE17CE7F5CF06E221EE40EE68E1A2
:104B00007CE7EFCF07E225EE44EE69E17CE7E9CFF1
:104B100006E221EE42EE6CE17CE7E3CF07E225EE10
:104B200046EE6DE17CE7DDCF08E221E045EE6EE187
:104B30007CE7D7CF12968C91882319F010926B03E3
:104B4000D3CF81E0D1CF9093A9018093A80108959C
:104B500090937103809370030895E0917003F09136
:104B60007103309729F00190F081E02D09950895A7
:104B700080E00895EF92FF920F931F93CF93DF93FE
:104B8000EC01E0917003F0917103309709F440C09B
:104B900080911501882341F080919B0387FF04C019
:104BA0008881898386E088830280F381E02DCE01AD
:104BB000099580916E0282FF2BC080FF04C089EAB4
:104BC00096E00E94AC0410E000E083EAE82E86E064
:104BD000F82E80916E0280FF0EC0FE01E00FF11FE3
:104BE00080811F928F93FF92EF920E9445050F9054
:104BF0000F900F900F900F5F1F4F0830110549F76E
:104C000080916E0280FF04C081EA96E00E94AC04AD
:104C1000CDB7DEB7E6E00C94CC2FE0917003F091B5
:104C20007103309739F022E0DC012C930480F58188
:104C3000E02D09950895A3E0B0E0E1E2F6E20C94DE
:104C4000B42F20916E0330916F0328173907A1F01C
:104C500090936F0380936E03E0917003F091710362
:104C6000309751F023E029839B838A830680F78164
:104C7000E02DCE01019609952396E2E00C94D02F09
:104C8000A3E0B0E0E6E4F6E20C94B42F20916C03CC
:104C900030916D0328173907A1F090936D0380932D
:104CA0006C03E0917003F0917103309751F024E0B0
:104CB00029839B838A830680F781E02DCE010196AC
:104CC00009952396E2E00C94D02FFC013296809156
:104CD0001501882321F080919B039EE187FF96E0D8
:104CE00080E0915008F4089521912223D1F38F5F41
:104CF000F8CF662301F1209115012223F1F02091D4
:104D00009B0327FF1AC0462F4695469546954E3180
:104D100090F4677021E030E002C0220F331F6A95E3
:104D2000E2F7840F911DFC01828190E02823392352
:104D300081E0232B69F480E00895FC013296089607
:104D40002191261721F0E817F907D1F7F4CF81E078
:104D500008959C01FC0132969FEF80E04191461737
:104D600051F09F3F19F4411101C0982F8F5F863099
:104D7000A9F79F3F09F40895290F311D97FD3A9532
:104D8000F90162830895FC01329608962191261359
:104D900003C0DF0111971C92E817F907B9F70895CE
:104DA000E62FE695E695E695EE3170F4E80FF92FDB
:104DB000F11D677021E030E001C0220F6A95EAF72B
:104DC0008281822B8283089580916E0280FF0CC0C5
:104DD0001F926F9389ED96E09F938F930E944505F4
:104DE0000F900F900F900F900895E62FE695E6959F
:104DF000E695EE3178F4E80FF92FF11D677021E0A8
:104E000030E001C0220F6A95EAF7209582812823BD
:104E10002283089580916E0280FF0CC01F926F93D1
:104E20008BEB96E09F938F930E9445050F900F9018
:104E30000F900F90089520911501222331F02091B9
:104E40009B0327FF02C0ACCF089583CF0895209124
:104E50001501222331F020919B0327FF02C0C5CF0B
:104E6000089591CF0895FC01329680911501882311
:104E700051F080919B0387FF06C08EE1DF011D92F8
:104E80008A95E9F7089586E0F9CF46E050E00E9460
:104E9000113021E0892B09F420E0822F0895089534
:104EA000FECF0895811105C081E080937203F8CF91
:104EB000089582E0FACF83E080937203F1CF0895E2
:104EC000F1CF089581E080937203EACF0895FACF7D
:104ED000089508950895FECF089508950895F9CF8F
:104EE0000895CF93FADF0E941B16F8DFC0E08C2FE5
:104EF0000E941B15892B31F4CF5FC430C1F780E0CD
:104F0000CF91089581E0FCCF85B7806885BF85B7D4
:104F1000806885BF08951F921FB61F9211248F933A
:104F20009F93AF93BF9380917303811113C08091BE
:104F3000AD039091AE03A091AF03B091B003419641
:104F4000A11DB11D8093AD039093AE03A093AF0359
:104F5000B093B003BF91AF919F918F911F901FBEEF
:104F60001F9018958091B503843031F10E94CD06D1
:104F70001092730388E190E020E40FB6F894A895AE
:104F8000809360000FBE2093600083B7817F8460B0
:104F900083BF83B7816083BF7894889583B78E7F02
:104FA00083BF0FB6F894A8958091600088618093C4
:104FB0006000109260000FBE08950E941A090C94C0
:104FC000D106089582E084BD93E095BD9AEF97BD28
:104FD00080936E0008952FB7F8948091AD0390915F
:104FE000AE03A091AF03B091B0032FBF08952FB7C8
:104FF000F8946091AD037091AE038091AF039091EE
:10500000B0032FBF08959C014FB7F8948091AD0372
:105010009091AE03A091AF03B091B0034FBF821B3C
:10502000930B089578941F921FB61F9211248F93AB
:105030009F93AF93BF938091AD039091AE03A091E6
:10504000AF03B091B0030196A11DB11D8093AD03D4
:105050009093AE03A093AF03B093B003BF91AF9111
:105060009F918F911F901FBE1F90189581E0809394
:10507000E00080E28093D8001092C9008FE19EE4A6
:105080000197F1F700C0000087E090EBDC0180930E
:10509000BE039093BF03A093C003B093C10388E104
:1050A0009CE00FB6F894A895809360000FBE909393
:1050B0006000FFCF88E19CE00FB6F894A89580933C
:1050C00060000FBE90936000FFCF8091970308951A
:1050D0009B01BA019091B5039430E1F48F708093F5
:1050E000E9009FEF8091E800915085FD06C085EDB5
:1050F0008A95F1F700009111F5CF8091E80085FFC6
:1051000009C050E040E0C90190D28091E8008E775C
:105110008093E800089543E050E0BC0182E0D8CFDE
:10512000089546E050E0BC0182E0D2CF0895CF93CD
:10513000DF93EC0180911501811110C048E050E02F
:10514000BE0181E0C5DF80E2FE01A7E7B3E0019088
:105150000D928A95E1F7DF91CF91089580919B039D
:1051600087FF05C040E282E050E0BE01EBCF48E09F
:1051700081E0FACF8BE097E00E94AC048091B40309
:10518000811107C0E0D337D48091E200846080931E
:10519000E200089587E097E00E94AC041092B40307
:1051A000089583E097E00E94AC048CCE08958FEFC1
:1051B00096E00E94AC046091B10381E0611101C0EE
:1051C00080E079CE08958BEF96E00E94AC04909138
:1051D000B50381E0943009F080E06091B10370CEB6
:1051E0000895209175032F5F822F62E388D699235B
:1051F00019F020937503089510927503809176033A
:105200008823F1F08091B5038430C1F49091E900D6
:105210009F702091EC00822F817020FD80E8892B07
:1052200093E09093E9009091EB0090FF04C090917F
:10523000EE0097FD08C08F708093E900109276030E
:1052400008951092F1009091E80095FDFACF9091A9
:10525000E80090FFF0CF9091E8009E779093E800EF
:10526000EACF42E061EC81E0EAD242E261EC82E026
:10527000E6D242E261EC83E0E2D29091B50381E0B4
:10528000943009F080E06091B1030CCE08958091D4
:10529000B703833009F45FC030F48130C9F1823044
:1052A00009F49AC008958A3009F487C08B3009F454
:1052B0006DC0893009F04EC08091B603813209F08B
:1052C00049C08091BA039091BB03029708F042C095
:1052D0008091E800877F8093E8008091E80082FF5A
:1052E00035C09091F3008091F200029731F48091E3
:1052F000F100813011F0863021F48091F10080932B
:1053000097038091E8008B778093E800CCD222C08D
:105310008091B603813AF1F48091E800877F809311
:10532000E8008091BA039091BB03892B59F460E2A5
:1053300087E793E070E0C6D18091E8008B77809397
:10534000E800089560E090E080E0F4CF8091B5033C
:105350008111C3CF08958091B603813AD9F7809126
:10536000BA039091BB03892BA9F78091E800877F4E
:105370008093E8008091E80080FFFCCF80911501C8
:105380008093F1008091E8008E77BECF8091B603C4
:10539000813201F78091BA039091BB03892BD1F63A
:1053A0008091E800877F8093E8007DD28091B803E8
:1053B000809315010C941A0908958091B6038132E7
:1053C00049F68091E800877F8093E8006CD2809155
:1053D000B9038093980308958091B603813A09F048
:1053E000B9CF8091E800877F8093E8008091E80042
:1053F00080FFFCCF80919803C3CF9FB7F8941092A1
:1054000076039FBF9091B503943009F048C0209176
:10541000E9002F703091EC00932F917030FD90E8EF
:10542000922B23E02093E9002091EB0020FF34C071
:105430002091EE0027FF30C020917403222321F039
:105440002091E80025FF28C01092740326E03091D7
:10545000E80035FF14C08093F1008091E80085FDDD
:1054600027C08091E80080FFFCCF8091E8008E7714
:105470008093E8009F709093E90080E00895309158
:10548000B503343049F43091EB0035FD05C02150AF
:1054900041F481E0809374039F709093E9008FEF53
:1054A0000895EFE9FFE03197F1F700C00000CFCF9A
:1054B0008FB7F89421E0209376038FBFDBCF84B7BA
:1054C000877F84BF0FB6F894A895809160008861AB
:1054D00080936000109260000FBE80E890E00FB6ED
:1054E000F89480936100909361000FBEF0CC089512
:1054F0002AD281D2E2EEF0E08081846080837894C9
:10550000E4C408958DE091E023CB08958091B50324
:10551000853049F487EF96E00E94AC048091B50392
:10552000853011F04ACD08951DDD8091B3038823A5
:10553000A9F3D7DC882391F362D00E941A09EECF39
:1055400008959A014091BC035091BD0301C0089594
:10555000492F55274330510521F168F44130510559
:1055600009F443C04230510509F444C090E080E0A2
:1055700050E040E026C04132510551F14232510520
:10558000A9F76330710590F7FB01EE0FFF1FE55699
:10559000FE4F4081518168567E4FFB01808190E033
:1055A00010C099278130910581F0009729F002976A
:1055B000E9F6EFE0F7E002C0E5E4F7E0849190E07F
:1055C000AF01F901518340830895E7E3F7E0F6CF97
:1055D0006330710558F6660F771FFB01EF55FE4FDC
:1055E0004081518189E090E0ECCF82E190E044EA93
:1055F00057E0E7CF8BE590E049E457E0E2CF80E168
:1056000089BD82E189BD09B400FEFDCF8091D8003B
:105610008F7D8093D8008091E00082608093E000CD
:105620008091E00081FDFCCF0895AF92BF92CF92B0
:10563000DF92FF920F931F93CF93DF936C01EB01E7
:105640008A0150D1F82E811123C00115110539F0BE
:10565000F80180819181C81BD90BC80ED91EB12CCD
:10566000A12C2097A9F08091E80085FD21C08091B0
:10567000E8008E778093E80001151105A1F0F8018C
:1056800080819181A80EB91EB182A08285E0F82E9A
:105690008F2DDF91CF911F910F91FF90DF90CF90D1
:1056A000BF90AF9008951ED18823D9F2F82EF0CF85
:1056B000F60181916F018093F1002197FFEFAF1AFE
:1056C000BF0ACFCFFC018091BC039091BD03861728
:1056D0009707A0F06115710529F49091E8009E7775
:1056E0009093E80090E06115710551F4911108C0A4
:1056F0008091E80082FF34C080E00895BC01F2CFC1
:105700008091B5038823C1F18530C1F18091E80013
:1057100083FD30C08091E80082FDEACF8091E800EF
:1057200080FFE1CF8091F3002091F200382F6115C6
:10573000710519F02830310558F091E02830310515
:1057400009F090E02091E8002E772093E800CBCF7D
:1057500081918093F100615071092F5F3F4FE7CF36
:105760008091B503882341F0853041F08091E800B5
:1057700083FFBECF81E0089582E0089583E008951D
:10578000FC018091BC039091BD0386179707A0F0A0
:105790006115710529F48091E8008E778093E80007
:1057A00090E06115710551F4911108C08091E800F5
:1057B00082FF35C080E00895BC01F2CF8091B5032F
:1057C0008823C9F18530C9F18091E80083FD31C09B
:1057D0008091E80082FDEACF8091E80080FFE1CF70
:1057E0008091F3002091F200382F6115710519F0B6
:1057F0002830310558F091E02830310509F090E06B
:105800008091E8008E778093E800CBCF84918093DD
:10581000F1003196615071092F5F3F4FE6CF8091C3
:10582000B503882341F0853041F08091E80083FF83
:10583000BDCF81E0089582E0089583E00895982F18
:10584000973028F08F708093E90081E0089590935D
:10585000E900242F762F50E0981731F07091EC007A
:105860002091ED005091F00021FD02C09F5FE8CF34
:105870003091EB003E7F3093EB003091ED003D7FA7
:105880003093ED003091EB0031603093EB0070937A
:10589000EC002093ED005093F0002091EE0027FDE6
:1058A000E5CF80E008958091B60387FF13C0809113
:1058B000E80082FF06C08091E8008B778093E800C3
:1058C00004C08091B5038111F2CF08958091B50392
:1058D0008823D9F38091E80080FFF8CF8091E80019
:1058E0008E77ECCF2091E4003091E50095E6A90198
:1058F0002091EC00822F817020FF06C08091E8008B
:1059000080FF06C080E008952091E80022FD1AC0C3
:105910008091B503882389F0853089F08091EB0070
:1059200085FD0FC02091E4003091E5004217530738
:10593000F9F29150E1F684E0089582E0089583E061
:10594000089581E0089568D06FD0E0EEF0E08081A6
:1059500081608083E8EDF0E080818F77808319BCDF
:10596000A7EDB0E08C918E7F8C9380818F7E8083B9
:105970001092B40308950F931F93CF93DF934CD0ED
:1059800053D0C8EDD0E088818F7788838881806884
:10599000888388818F7D888319BC1092B50310920B
:1059A000B1031092B3031092B20300EE10E0F801BD
:1059B00080818B7F808388818160888342E060E082
:1059C00080E03DDFE1EEF0E080818E7F8083E2EEDB
:1059D000F0E0808181608083808188608083F8012D
:1059E00080818E7F8083888180618883DF91CF91E1
:1059F0001F910F910895E8EDF0E080818F7E808304
:105A0000E7EDF0E080818160808384E082BF81E007
:105A10008093B403B0CF0895E8EDF0E080818E7FED
:105A200080831092E20008951092DA001092E10053
:105A300008951F920F920FB60F9211242F933F9348
:105A40004F935F936F937F938F939F93AF93BF9386
:105A5000EF93FF938091E10082FF0AC08091E20002
:105A600082FF06C08091E1008B7F8093E100B9DB6B
:105A70008091DA0080FF18C08091D80080FF14C0A8
:105A80008091DA008E7F8093DA008091D90080FFC8
:105A900091C080E189BD82E189BD09B400FEFDCFDE
:105AA00081E08093B50366DB8091E10080FF18C040
:105AB0008091E20080FF14C08091E2008E7F80938D
:105AC000E2008091E20080618093E2008091D80042
:105AD00080628093D80019BC85E08093B50367DBB2
